:100000000C94A4010C94D5010C94D5010C94D50149
:100010000C94D5010C94D5010C94D5010C94D50108
:100020000C94D5010C94771D0C94771D0C94771DBE
:100030000C94D5010C947D1B0C94D5010C94D50126
:100040000C94D5010C942F1F0C94D5010C94D50160
:100050000C94D5010C94D5010C94D5010C942D1D54
:100060000C94D5010C94031D0C94D91C0C94D5014F
:100070000C94D5010C94D5010C94D5010C94D501A8
:100080000C94011F0C94D5010C94D5010C94D5014E
:100090000C94AF1C0C94851C0C94D5010C94811D00
:1000A0000C94D5010C94D5010C94D31E0C94D5015D
:1000B0000C94D5010C94D5010C94D5010C94A51E7B
:1000C0000C94D5010C94D5010C94D5010C945B1CB7
:1000D0000C94311C0C94D5010C94071C0C94DD1B62
:1000E0000C94D5010C946E0E0C94BE0A0C94B70AB5
:1000F0000C94BF0E0C94690E0C94CE030C94A40ABD
:100100000C94910E0C9481030C949B110C94DE11B1
:100110000C94F60E0C9456040C94A10E0C949913A6
:100120000C94EB0A0C943B040C947D0E0C94D80EAA
:100130000C94AF0C0C941D030C9455110C94EE11FF
:100140000C944C040C94EC0E0C9476040C94AB0EB2
:100150000C946A110C945A040C94B4020C94730E0F
:100160000C9450040C945D0F0C94FD110C94F5014B
:100170000C94D7010C943D110C945D1F0C947A0DD6
:100180000C9437090C942C110C9409020C94130252
:100190000C943F040C9409030C941A0B0C94940ACD
:1001A0000C94FF010C94CE0E0C946C040C94460439
:1001B0000C94AD020C94FA020C9414020C94930A61
:1001C0000C9443040C945E040C94B50E0C947104CE
:1001D0000C94E1010C94820C0C9437040C94870E5F
:1001E0000C94950A0C94D2110C94990E0C946404FE
:1001F0000C94920A0C941F020C948D100C94811193
:100200000C94E6110C94EB010C94E20E0C9468042F
:100210000C94000F0C9472040C942B030C94050F97
:100220000C94310400002100240027002A002D0036
:100230003000330001010000040107010A01000041
:100240002200250028002B002E003100340002017E
:100250000000050108010B0100002000230026001A
:1002600029002C002F0032000001000003010601CC
:10027000090105050505070508080808020202022C
:100280000A0A080804040404010101010101010132
:100290000303030303030303040707070C0C0C0CFD
:1002A0000C0C0C0C020202020606060606060606E6
:1002B0000B0B0B0B0B0B0B0B010210202008081073
:1002C00020401020408002010201080402010102C6
:1002D000040810204080804020100804020180049F
:1002E00002018040201008040201080402010102FA
:1002F0000408102040800102040810204080000003
:100300000A0B02090C0D0E0807030401000000008F
:1003100000000000000000000000000000000000DD
:10032000000000000000000000001211100000009A
:1003300000000000000000000000000000000000BD
:100340000000000002005D1F11241FBECFEFD1E2AC
:10035000DEBFCDBF00E00CBF13E0A0E0B2E0EAE2F8
:10036000FCE500E00BBF02C007900D92AC39B1076D
:10037000D9F72AE0ACE9B3E001C01D92A93EB2076B
:10038000E1F711E0C4EAD1E000E006C021970109DD
:10039000802FFE010E94D02CC33AD10780E00807CD
:1003A000A9F70E9437210C94132E0C940000862F7D
:1003B000E0911205F0911305309711F0BA011994EC
:1003C0000895862FE0911005F0911105309711F0F6
:1003D000BA0119940895862FE0910E05F0910F054A
:1003E000309711F0BA0119940895862FE0910C0509
:1003F000F0910D05309711F0BA0119940895862FE8
:10040000E0910A05F0910B05309711F0BA011994AB
:100410000895862FE0910805F0910905309711F0B5
:10042000BA01199408950895862F642FE091140558
:10043000F0911505309711F0A90119940895E091F4
:100440001605F0911705309709F019940895CF9388
:10045000DF93FC01A081B181109701F1EC01ED91D6
:10046000FC9111970190F081E02D69EFCD01199574
:1004700088819981DC01ED91FC910190F081E02D62
:1004800062E0199588819981DC01ED91FC910190E0
:10049000F081E02D65E0DF91CF911994DF91CF914C
:1004A0000895A091D208B091D308ED91FC911197D5
:1004B0000190F081E02D682FCD0119941F93CF9307
:1004C000DF93182FEB018091990890919A08681793
:1004D000790760F48091970890919808C80FD91F08
:1004E000188380E0DF91CF911F910895E091C608B5
:1004F000F091C708309711F481E0F4CF81E0809348
:1005000096088091B2089091B30819958091990846
:1005100090919A08C817D90778F7DCCFCF93DF936B
:10052000EC01FB0130E020E0C901880F991F8C1716
:100530009D0778F44081DB014D93BD0111979181B6
:10054000979599279795942B9C932F5F3F4F3296C1
:10055000EBCFC901DF91CF910895009721F0805C26
:100560009F4F0C9427020895AF92BF92CF92DF92D3
:10057000EF92FF920F931F93CF93DF936C017B0158
:100580008B01040F151FEB015E01AE18BF08C017E9
:10059000D10759F06991D601ED91FC910190F0815C
:1005A000E02DC6011995892B79F7C501DF91CF910F
:1005B0001F910F91FF90EF90DF90CF90BF90AF9081
:1005C0000895FC01A089B1898C91A689B78982FD23
:1005D0000FC09C91818D8F5F8F73228D821749F0A0
:1005E000A18DAE0FBF2FB11D5D969C93818F089595
:1005F0008C910895FC01538D448D252F30E0842F7C
:1006000090E0821B930B541710F0CF96089501973A
:100610000895FC01918D828D981761F0A28DAE0F27
:10062000BF2FB11D5D968C91928D9F5F9F73928FAE
:1006300090E008958FEF9FEF0895FC01918D828DDA
:10064000981731F0828DE80FF11D858D90E00895A7
:100650008FEF9FEF0895FC01918D228D892F90E0FF
:10066000805C9F4F821B91098F739927089580EEBC
:1006700095E00E942B0321E0892B09F420E0822FD2
:1006800008958DE796E00E942B0321E0892B09F461
:1006900020E0822F08958AE197E00E942B0321E059
:1006A000892B09F420E0822F089587EB97E00E94C0
:1006B0002B0321E0892B09F420E0822F0895FC010F
:1006C000A48DA80FB92FB11DA35ABF4F2C91848DB3
:1006D00090E001968F739927848FA689B7892C9310
:1006E000A089B1898C91837080648C93938D848D63
:1006F000981306C00288F389E02D80818F7D808366
:100700000895EF92FF920F931F93CF93DF93EC0125
:1007100081E0888F9B8D8C8D98131AC0E889F989A8
:10072000808185FF15C09FB7F894EE89FF896083AB
:10073000E889F98980818370806480839FBF81E02C
:1007400090E0DF91CF911F910F91FF90EF9008956E
:10075000F62E0B8D10E00F5F1F4F0F731127E02E49
:100760008C8D8E110CC00FB607FCFACFE889F98981
:10077000808185FFF5CFCE010E945F03F1CFEB8D25
:10078000EC0FFD2FF11DE35AFF4FF0829FB7F89455
:100790000B8FEA89FB8980818062CFCFCF93DF9373
:1007A000EC01888D8823B9F0AA89BB89E889F98989
:1007B0008C9185FD03C0808186FD0DC00FB607FCBE
:1007C000F7CF8C9185FFF2CF808185FFEDCFCE01F1
:1007D0000E945F03E9CFDF91CF91089580E090E020
:1007E000892B29F00E94550381110E94000080E0AE
:1007F00090E0892B29F00E944B0381110E94000098
:1008000080E090E0892B29F00E94410381110E9431
:10081000000080E090E0892B29F00E9437038111CD
:100820000C94000008958150823108F05AC0E82FDE
:10083000F0E08827E15EFB4F8F4F0C94D02C3F04F3
:100840004304310437043B04710446044C0450044F
:1008500056045A045E046404680471046C0472044F
:100860007604809180008F77809380000895809136
:1008700080008F7DF9CF80918000877FF5CF84B590
:100880008F7784BD089584B58F7DFBCF8091B000B4
:100890008F778093B00008958091B0008F7DF9CF5D
:1008A000809190008F7780939000089580919000C0
:1008B0008F7DF9CF80919000877FF5CF8091A00048
:1008C0008F778093A00008958091A0008F7DF9CF4D
:1008D0008091A000877FF5CF809120018F77809352
:1008E00020010895809120018F7DF9CF8091200112
:1008F000877FF5CFCF93DF93282F30E0F901E250C7
:10090000FD4F8491F901E854FD4FD491F901EE585F
:10091000FD4FC491CC23A1F081110E941304EC2F50
:10092000F0E0EE0FFF1FE85AFD4FA591B491EC9156
:10093000ED2381E090E009F480E0DF91CF9108950C
:1009400080E090E0FACF1F93CF93DF93282F30E021
:10095000F901E250FD4F8491F901E854FD4FD49123
:10096000F901EE58FD4FC491CC23A9F0162F811147
:100970000E941304EC2FF0E0EE0FFF1FE25CFD4F2E
:10098000A591B4918FB7F894EC91111108C0D0954E
:10099000DE23DC938FBFDF91CF911F910895DE2B73
:1009A000F8CF9091000289130DC0E4E4F3E0E491E4
:1009B0009FEF90930002E230E1F038F4EE2381F0F3
:1009C000E13089F060E00C94A304E43049F110F1C7
:1009D000E530C1F7909173009D7F90937300F2CF43
:1009E00010926E00EFCF90916F009D7F90936F00FB
:1009F000E9CF909170009D7F9093700091E090936B
:100A0000B0009091B100987F94609093B1001092E3
:100A1000B300D8CF909171009D7F90937100D2CF99
:100A2000909172009D7F90937200CCCFCF93DF9313
:100A300090E0FC01E854FD4F24918E589D4FFC013D
:100A400084918823C9F090E0880F991FFC01EC5D28
:100A5000FD4FA591B491FC01E25CFD4FC591D4918D
:100A600061110DC09FB7F8948C91209582238C93CF
:100A70008881282328839FBFDF91CF91089562301A
:100A800051F49FB7F8943C91822F809583238C93E7
:100A9000E8812E2BEFCF8FB7F894EC912E2B2C936F
:100AA0008FBFEACF863308F0865320917B00982FC2
:100AB0009870277F922B90937B008770806480933F
:100AC0007C0080917A00806480937A0080917A0023
:100AD00086FDFCCF809178009091790008953FB712
:100AE000F8948091FD049091FE04A091FF04B091D0
:100AF000000526B5A89B05C02F3F19F00196A11D42
:100B0000B11D3FBFBA2FA92F982F8827BC01CD0157
:100B1000620F711D811D911D42E0660F771F881FB6
:100B2000991F4A95D1F708958F929F92AF92BF92E5
:100B3000CF92DF92EF92FF926B017C010E946F05D2
:100B40004B015C01C114D104E104F104B9F00E942D
:100B50006F05681979098A099B09683E7340810508
:100B6000910580F321E0C21AD108E108F10888EE6E
:100B7000880E83E0981EA11CB11CE4CFFF90EF907B
:100B8000DF90CF90BF90AF909F908F900895AF92DD
:100B9000BF92CF92DF92EF92FF920F931F93CF936A
:100BA000DF93C82FD62F1092470A1092480A10924E
:100BB000490A10924A0A10924B0A61E00E941605F7
:100BC00060E08C2F0E94A3046D2F70E090E080E025
:100BD0000E94940560E08C2F0E9416058BE990E03E
:100BE0000197F1F700E911E08C2F0E947A04892B1C
:100BF00081F401501109C1F78EEF9FEFDF91CF9182
:100C00001F910F91FF90EF90DF90CF90BF90AF902A
:100C1000089500E911E08C2F0E947A04019721F4D5
:100C200001501109C1F7E8CF18E2D0E800E090E9DF
:100C3000E92EFF24F3948C2F0E947A04892B29F447
:100C400081E0E81AF108B9F7D7CF0E946F056B0170
:100C50007C0180E9A82EBB24B3948C2F0E947A04D7
:100C6000019729F481E0A81AB108B9F7C5CF0E940D
:100C70006F056C197D098E099F096932710581051F
:100C8000910538F0E02FF0E0E95BF54F80818D2B86
:100C90008083D69511F40F5FD0E8115041F690E0B3
:100CA00080E0ACCF8F929F92AF92BF92CF92DF92B3
:100CB000EF92FF921F93CF93DF93FC014A01AA2486
:100CC000BB24C82DC32ED42EE52EFF241C2DD22FDD
:100CD0008781882361F0889E40011124C92D8C9D55
:100CE000600111241D2D829FD0011124DB2FA585C9
:100CF000E084F1849285A91322C0CB01880F991F4B
:100D0000680F791F6E0D7F1DA285A60FB72FB11D2D
:100D1000CC93A385A60FB72FB11D1C938485680FB4
:100D2000711DFB01D083DF91CF911F91FF90EF9058
:100D3000DF90CF90BF90AF909F908F900895660FF7
:100D4000771F660F771F6E0D7F1D252F33274427D2
:100D50005527882349F090E0829F7001839FF00C13
:100D6000929FF00C11242F2DA60FB72FB11D2C939D
:100D7000CBCFCF92DF92EF92FF920F931F93CF933F
:100D8000DF9300D000D000D0CDB7DEB78C010E9439
:100D90006F05D8011E96CD90DD90ED90FC90519797
:100DA0006C197D098E099F096C327140810591058E
:100DB00070F3F894F801848195819A838983008483
:100DC000F185E02D7F012FEFE21AF20A80818F83F7
:100DD000D8019C915296ED91FC91539754968C9129
:100DE000992309F448C09081982B98879081809529
:100DF0008923898789858B8388E08C8358856985D9
:100E00004F813C812B8189819A81D701508347FD95
:100E1000252F3A952083262F39F0441F00C000006B
:100E20006083000000C0F2CF38E04D916083000085
:100E3000019761F7D8015396FC93EE9352974F8335
:100E40003C832B839A83898378940E946F05F801F1
:100E500066877787808B918B29960FB6F894DEBFD3
:100E60000FBECDBFDF91CF911F910F91FF90EF90FB
:100E7000DF90CF9008959081982B988790818095EE
:100E80008923898789858D8388E08E835885698544
:100E90004F813E812D8189819A81D701508347FD01
:100EA000252F00C000C0208300C000C000C000C0CB
:100EB00000C060830000262F3A9541F0441F0000D7
:100EC00000C000C000C000C000C0E8CF38E04D91B5
:100ED00000C0608300C0019709F7D8015396FC93C6
:100EE000EE9352974F833E832D83ACCF5F926F92E8
:100EF0007F928F929F92AF92BF92CF92DF92EF92AA
:100F0000FF920F931F93CF93DF935C016901DA0186
:100F10005C90232B19F4CC24CA94DC2C8A013A016E
:100F2000660E771ED0E0C0E0F12CE12C87E0882E21
:100F3000912CF50180819181D8016C910C2E01C01A
:100F4000660F0A94EAF765296F77DC01ED91FC9151
:100F50000190F081E02D1995BFEFEB1AFB0AF80123
:100F6000608170E0C4018C1B9D0B02C07595679574
:100F70008A95E2F7562E2196C730D10558F1CE1446
:100F8000DF0441F1D5018D919C91652D6F77DC01D6
:100F9000ED91FC910190F081E02D1995BFEFEB1AD6
:100FA000FB0A551C5524551C2797E6CFEC14FD046D
:100FB00008F4BFCFDF91CF911F910F91FF90EF9079
:100FC000DF90CF90BF90AF909F908F907F906F9069
:100FD0005F9008950F5F1F4F6016710639F72097D5
:100FE00049F3EC14FD0430F7F5018081918161E053
:100FF00070E001C0660FCA95EAF761506521DC0117
:10100000ED91FC910190F081E02DDF91CF911F9146
:101010000F91FF90EF90DF90CF90BF90AF909F9097
:101020008F907F906F905F9019941F93CF93DF9371
:101030001F921F92CDB7DEB7182F7A8369838091F4
:101040009408909195080097C9F0DC01ED91FC910E
:101050000190F081E02D1031B8F461157044A0F4D6
:10106000612F606E199522E030E0AE014F5F5F4F57
:1010700062E070E084E998E00E9476070F900F909C
:10108000DF91CF911F91089560EF19958091940899
:1010900090919508DC01ED91FC910190F081E02D9B
:1010A0006FE619958091940890919508DC01ED9177
:1010B000FC910190F081E02D612F199522E030E044
:1010C000AE014F5F5F4F62E070E084E998E00E94FC
:1010D00076078091940890919508DC01ED91FC9140
:1010E0000190F081E02D67EF1995C8CFEF92FF9244
:1010F0000F931F93CF93DF93C82F80919408909103
:1011000095080097C9F17A018B01DC01ED91FC9102
:101110000190F081E02D60EF1995809194089091F5
:101120009508DC01ED91FC910190F081E02D6C2F90
:101130001995E7010E0D1F1DC017D10759F030E0BA
:1011400020E0AE0161E070E084E998E00E9476075B
:101150002196F2CF8091940890919508DC01ED9151
:10116000FC910190F081E02D67EFDF91CF911F910D
:101170000F91FF90EF901994DF91CF911F910F91F4
:10118000FF90EF900895CF92DF92EF92FF920F932E
:101190001F93CF93DF93FC01E058FF4FE080EE20D8
:1011A00009F45CC0EC01C05CDF4FA881B9811097E5
:1011B00009F454C0FC01EF57FF4FC080D180F60105
:1011C00011810081ED91FC9111970190F081E02D4A
:1011D00060EFCD01199588819981DC01ED91FC9139
:1011E0000190F081E02D69E7199588819981DC01F2
:1011F000ED91FC910190F081E02D602F199588818F
:101200009981DC01ED91FC910190F081E02D612F3D
:101210001995F12C01E010E00F5F1F4FE016F10669
:1012200059F030E020E0A601400F511F61E070E06E
:10123000CE010E947607F0CF88819981DC01ED9183
:10124000FC910190F081E02D67EFDF91CF911F912C
:101250000F91FF90EF90DF90CF901994DF91CF9195
:101260001F910F91FF90EF90DF90CF90089500971E
:1012700011F00C94C30808952091D504260F33274C
:10128000331F21323105ECF42091B605FC0190E0CA
:1012900080E0243069F082E00895A091D504219186
:1012A000AC014D545B4FA40FB52FB11D2C9301968B
:1012B000861798F38091D504680F6093D50480E079
:1012C000089581E008951092B60581E08093B505F8
:1012D0001092900561E084E10E94A30461E085E141
:1012E0000E94A304E9EBF0E080818E7F80838081FF
:1012F0008D7F808388E48093B80085E48093BC0070
:101300000895CF93DF9391E09093B2048823B9F0CE
:10131000C091B800D091BA008091BC008A7B8093C4
:10132000BC0060E084E10E94A30460E085E10E94CB
:10133000A3040E946309D093BA00C093B800DF9160
:10134000CF9108958F929F92AF92BF92CF92DF92EA
:10135000EF92FF920F931F93CF93DF93D091DF050E
:10136000D13208F0D7C0182FC091DE050E946F055A
:101370006B017C018091B60581116BC082E0809386
:10138000B6051093B5058FEF8093B4051092B305A1
:10139000D093B205AEEBB5E0E2E9F5E080E0D8131A
:1013A00091C01092910580919105CC0FC82BC093EC
:1013B000910580919005813009F088C010929005C8
:1013C0000E946F056B017C01809191058093BB00A9
:1013D0008091B8059091B905A091BA05B091BB056F
:1013E000892B8A2B8B2BA1F00E946F050091B805E9
:1013F0001091B9052091BA053091BB056C197D0992
:101400008E099F09061717072807390708F442C0F5
:101410008091BC0083FDD8CF85EC8093BC000E94F6
:101420006F056B017C018091B605823009F450C0D4
:101430008091B4058F3F09F46FC08091B40580326C
:1014400009F46CC08091B405803309F469C084E06C
:1014500026C08091B8059091B905A091BA05B091C8
:10146000BB05892B8A2B8B2B09F484CF0E946F0537
:101470008090B8059090B905A090BA05B090BB05D2
:101480006C197D098E099F0986169706A806B9066C
:1014900008F070CF8091B7050E94810985E0109215
:1014A000BD051092DF051092BC05DF91CF911F9111
:1014B0000F91FF90EF90DF90CF90BF90AF909F90F3
:1014C0008F9008959D9191938F5F69CF85EEA5CF01
:1014D0008091B8059091B905A091BA05B091BB056E
:1014E000892B8A2B8B2B09F49ECF0E946F050091CC
:1014F000B8051091B9052091BA053091BB056C195A
:101500007D098E099F09061717072807390708F074
:101510008ACFC0CF81E0C3CF80E0C1CF82E0BFCF10
:1015200083E0BDCF089508950895E091B1048091BE
:10153000B004E81730F4F0E0E057FB4F808190E012
:1015400008958FEF9FEF08959091B1048091B004BA
:101550002FEF3FEF981748F4E92FF0E0E057FB4FEB
:10156000208130E09F5F9093B104C901089580917C
:10157000B0049091B104891B990B0895CF92DF922A
:10158000EF92FF920F931F93CF93DF937C01CB01D8
:101590008A012091BC05222389F0EB016B01C40E66
:1015A000D51ECC15DD0569F06991D701ED91FC914F
:1015B0000190F081E02DC7011995F3CF642F0E94AF
:1015C0003C09C801DF91CF911F910F91FF90EF90DF
:1015D000DF90CF900895CF93DF931F92CDB7DEB702
:1015E00069832091BC052223F9F02091DF05203288
:1015F00058F021E030E0FC013383228390E080E06A
:101600000F90DF91CF9108958091BD05E82FF0E014
:10161000E254FA4F998190838F5F8093BD05809348
:10162000DF0581E090E0ECCF61E0CE0101960E9401
:101630003C09F7CF90E080E00895DF92EF92FF92AF
:101640000F931F93CF93DF93EC01D62E7A0189017C
:101650008881803308F067C061E08D2D0E941605F7
:101660008881282F30E0F901EE0FFF1FE20FF31FF2
:10167000EA54F64F9D2D9F736081607C692B6083D7
:1016800020E232E02E193F0937FF02C02D5F3F4FA5
:101690003595279535952795298320E639E0201B38
:1016A000310B37FF02C02D5F3F4F3595279535959C
:1016B00027952A832CE0622F0E949C2C829FB001E8
:1016C000112430E020E0AB01420F531FFA01EE0F6E
:1016D000FF1FE40FF51FEA54F64F908196FD16C0E8
:1016E0002F5F3F4F2C30310571F7813029F5109273
:1016F000800082E080938100109285001092840027
:10170000B19A80916F00826080936F00E8818E2F84
:1017100090E0FC01EE0FFF1FE80FF91FEA54F64FAF
:101720008081806480838881DF91CF911F910F91A8
:10173000FF90EF90DF900895823061F41092900056
:1017400080939100109295001092940088BB809332
:101750007100DCCF833069F41092A00082E08093A6
:10176000A1001092A5001092A40089BB8093720082
:10177000CDCF8111CBCF1092200182E08093210147
:1017800010922501109224018ABB80937300BECF72
:10179000AF92BF92CF92DF92EF92FF920F931F937F
:1017A000CF93DF936B017A01EC01C457DB4F2881A3
:1017B0003CE0389F8001399F100D1124A090460A0B
:1017C000B12C27FF1FC0FB011182108288818F5F1F
:1017D000888388819801280F311D87FD3A95F6018D
:1017E0002A153B051CF488818C30C4F180819181DD
:1017F000049680349C4908F473C0F601808191817D
:10180000049670C088819801280F311D87FD3A9594
:101810002A153B05DCF68881A801480F511D87FD7C
:101820005A95FA01EE0FFF1FE40FF51FEA54F64F29
:10183000808186FFCBCF8881F801E80FF11D87FDFD
:10184000FA95CF01EE0FFF1FE80FF91FEA54F64F8C
:10185000808160E08F730E94A304B8CF8081918162
:101860002881A801420F511D27FD5A959A01FA01BE
:10187000EE0FFF1FE20FF31FEA54F64F2181328172
:10188000820F931FF7019183808388819801280F2D
:10189000311D87FD3A95F901EE0FFF1FE20FF31F8F
:1018A000EA54F64F808186FF22C08881080F111DFF
:1018B00087FD1A95F801EE0FFF1FE00FF11FEA54A4
:1018C000F64F808161E08F73DF91CF911F910F916F
:1018D000FF90EF90DF90CF90BF90AF900C94A30457
:1018E00080E49CE9F701918380838FEF8883DF9107
:1018F000CF911F910F91FF90EF90DF90CF90BF900D
:10190000AF900895CF938031B0F421E030E0082EFD
:1019100002C0220F331F0A94E2F7409156055091FE
:101920005705672B51F420953095242335233093A8
:10193000570520935605CF910895242B352B3093CE
:1019400057052093560590918B049111F4CFC82F21
:101950000E945205BC018C2FCF910C9415084F9218
:101960005F926F927F928F929F92AF92BF92CF922F
:10197000DF92EF92FF920F931F93CF93DF93893003
:1019800008F0A7C08F5FC82FCC0FCC0FCC0F4C2E08
:10199000C73410F056E4452ED62F38EF532E5C0E88
:1019A000852C912CC401880F991F9C012C5A374F0C
:1019B0005901052DD12CC12C10E077247394041506
:1019C000C8F58EEF800F8434F8F4F601E80DF91DA8
:1019D000E952F74F90819230B8F4872D8D23662419
:1019E0006394811101C0612C7601EE0CFF1C9130D3
:1019F00089F4172939ECE30EF11CF501EE0DFF1DFA
:101A0000862D90E091838083770C0F5F8FEFC81A4B
:101A1000D80AD5CF882371F3F701E753FF4FEA0DBA
:101A2000FB1D80819181019729F362E0802F0E9444
:101A30001605E0CF10FF05C06D2F6170852D0E9447
:101A4000A30411FF06C06D2F627089EF8C0F0E94F6
:101A5000A30412FF06C06D2F64708AEF8C0F0E94E2
:101A6000A30413FF06C06D2F68708BEF8C0F0E94CC
:101A7000A30414FF06C06D2F60718CEF8C0F0E94C1
:101A8000A30415FF06C06D2F60728DEF8C0F0E94AE
:101A9000A30416FF06C06D2F60748EEF8C0F0E949A
:101AA000A30417FF16C06D2F60788FEF8C0FDF91A6
:101AB000CF911F910F91FF90EF90DF90CF90BF904B
:101AC000AF909F908F907F906F905F904F900C940D
:101AD000A304DF91CF911F910F91FF90EF90DF90C2
:101AE000CF90BF90AF909F908F907F906F905F90BE
:101AF0004F9008958F929F92AF92BF92CF92DF92B4
:101B0000EF92FF920F931F93CF93DF93EB018634F5
:101B100008F098C0082F10E0F801E952F74F9081C3
:101B2000933009F49CC0943009F08CC08250843406
:101B300008F081C0F801E55CFB4FC080D12C760134
:101B4000EE0CFF1C4B01603282E078070CF03EC0C7
:101B5000F701EC0DFD1DEB5AF54F8181A8E88A2EA7
:101B6000912C881A910887FD9394880C991C880CF5
:101B7000991C092C000CAA08BB08828128E532E0D8
:101B8000281B310987FD3395220F331F220F331F86
:101B9000032E000C440B550B281939094A095B091F
:101BA000DB01653B710514F0A4EBB0E0B7FF02C0A8
:101BB000B0E0A0E00E946F2A24EB30E040E050E06B
:101BC0000E94452A820E931EA41EB51EF701EC0D3D
:101BD000FD1DEB5AF54F2081203368F5318188E8EF
:101BE00090E0831B910937FD9395880F991F880F0B
:101BF000991F881699067CF0328188E592E0831B54
:101C0000910937FD9395880F991F880F991F8816A2
:101C100099060CF4C4010297880F991F4FB7F894E6
:101C200030E0F901EE0FFF1FE20FF31FEA54F64F09
:101C3000928381834FBF000F111FF801E35EF64FBF
:101C4000D183C083DF91CF911F910F91FF90EF90CF
:101C5000DF90CF90BF90AF909F908F900895F82E17
:101C60008EEF800F8C3020F084ED800F833018F7DA
:101C700061E08F2D0E941605209729F460E08F2DDA
:101C80000E94A304D8CFCF3FD10511F461E0F7CF74
:101C9000F801E250FD4FE491E150E23108F0B0C0AC
:101CA000F0E08827E95AF14F8F4F0C94D02C690E41
:101CB0006E0E730E7D0E870E000F910E990EA10E03
:101CC000AB0EB50EBF0ECE0ED80E000FE20EEC0E10
:101CD000F60E84B5806884BDC7BDADCF84B5806283
:101CE00084BDC8BDA8CF80918000806880938000AB
:101CF000D0938900C09388009ECF8091800080623D
:101D000080938000D0938B00C0938A0094CF809101
:101D10008000886080938000D0938D00C0938C00F9
:101D20008ACF8091B00080688093B000C093B300E8
:101D300082CF8091B00080628093B000C093B400E5
:101D40007ACF80919000806880939000D093990022
:101D5000C093980070CF8091900080628093900033
:101D6000D0939B00C0939A0066CF809190008860CA
:101D700080939000D0939D00C0939C005CCF809195
:101D8000A00080688093A0008091A0008F7B80934A
:101D9000A000D093A900C093A8004DCF8091A000CF
:101DA00080628093A000D093AB00C093AA0043CF81
:101DB0008091A00088608093A000D093AD00C09374
:101DC000AC0039CF80912001806880932001D093AE
:101DD0002901C09328012FCF809120018062809338
:101DE0002001D0932B01C0932A0125CF809120019F
:101DF000886080932001D0932D01C0932C011BCFCC
:101E0000C038D1050CF042CF39CF9EEF980F9434F3
:101E100080F4E82FF0E0DF01A952B74F9C91913098
:101E200041F4EE0FFF1FE35EF64F608371830C9465
:101E3000A3040895FF920F931F93CF93DF931F92F4
:101E40001F92CDB7DEB7082F10E0F801E85EFA4F19
:101E50009081F62EF9220F571B4F411104C0F80153
:101E600090819F1511F12F2D30E03A832983A091A5
:101E70009408B09195081097B1F0682F6F70606961
:101E8000ED91FC9111970190F081E02DCD01199514
:101E900022E030E0AE014F5F5F4F62E070E084E926
:101EA00098E00E947607F801F0820F900F90DF9182
:101EB000CF911F910F91FF9008950F931F93CF9390
:101EC000DF93893008F071C0282F30E0F901EF5D11
:101ED000FA4F6083672B09F468C0082F285E3A4FD9
:101EE000F9011081D82FDD0FDD0FDD0F8EEF8D0F83
:101EF000843450F4C12FC17010FF07C08D2F0E9491
:101F00007A04C1E0892B09F4C0E08FEF8D0F84348F
:101F100048F411FF07C081E08D0F0E947A04892BDD
:101F200009F0C26012FF07C082E08D0F0E947A04A0
:101F3000892B09F0C46013FF07C083E08D0F0E9456
:101F40007A04892B09F0C86014FF07C084E08D0F64
:101F50000E947A04892B09F0C06115FF07C085E053
:101F60008D0F0E947A04892B09F0C062D034A1F051
:101F700016FF07C086E08D0F0E947A04892B09F0B6
:101F8000C064DF3349F017FF07C087E08D0F0E9460
:101F90007A04892B09F0C06841E06C2F802FDF9113
:101FA000CF911F910F910C941A0FDF91CF911F9138
:101FB0000F910895A82FB0E0A55CBB4F9C91292FED
:101FC00030E0F901EE0FFF1FE20FF31FEB5AF54F60
:101FD000E0812E2F30E0F901EE0FFF1FE20FF31F1B
:101FE000EA54F64F80818F7B808380913904981367
:101FF00008C0992319F09150909339048FEF8C9376
:1020000008958823D9F3E0913A04EF5FE0933A040E
:10201000F0E0E556FC4F9083F1CFFC0101900020E9
:10202000E9F73197BF01681B790BAC0181E70C948C
:102030007608CF93DF93DB0190913904903378F5E4
:1020400030913A04682F70E0FB01E55CFB4F3323CD
:10205000E1F0C32FD0E0C556DC4F8881808331503A
:1020600030933A04808123E0829FC00111248B5A6F
:10207000954F1A161B0674F4141615065CF49A0193
:10208000AD01DF91CF910C941D0B90839F5F9093D6
:102090003904E8CF20E639E040E252E0F2CF8EE2A8
:1020A00092E0DF91CF910C940D1085ED8093BC00F0
:1020B0008091B8059091B905A091BA05B091BB0582
:1020C0000796A11DB11D23E0B695A7959795879515
:1020D0002A95D1F72091BC0024FD03C01092B605CB
:1020E00008954091B8055091B9056091BA05709175
:1020F000BB05452B462B472B69F30097A105B1057E
:1021000041F025E32A95F1F700000197A109B109F3
:10211000E1CF8091B7050C9481098F929F92BF9275
:10212000CF92DF92EF92FF920F931F93CF93DF93A3
:10213000C82ED12CE601CC5AD74FFE01ED57FF4FE8
:1021400090819F3709F4A5C0963061F490918A047C
:10215000992341F06630710529F010928A049FEFAF
:10216000909301027B01182F0EEF080F043408F53D
:1021700064307105F1F0F601E55CFB4F808180333E
:10218000C0F490E0FC01EE0FFF1FE80FF91FEB5ABF
:10219000F54FE0818E2F90E0FC01EE0FFF1FE80F5E
:1021A000F91FEA54F64F808186FF03C0812F0E94F9
:1021B000DA0F5AECB52EB10E8FE08B1558F061E0B6
:1021C00070E032E0E316F10411F070E060E08B2D76
:1021D0000E94820C0434C8F4E12FE695E695E6955A
:1021E000F0E0E85EFA4F2081312F377081E090E017
:1021F00001C0880F3A95EAF7E114F10421F03BE0C1
:10220000E316F10431F5822B80834601880C991C7A
:10221000F401E35EF64F1182108280E1E816F104CA
:1022200008F0DCC0F7018827E75EFE4E8F4F0C9464
:10223000D02C3D116A112C1181119B11EE11D2117C
:10224000EE11EE11EE11DE115511DE11EE11EE114F
:10225000E61180958223D8CF3FE03B15D0F00434BF
:1022600020F460E0812F0E941605CD57DF4F888152
:102270008F3779F082E088830CC0043450F460E03A
:10228000812F0E941605CD57DF4F88818F3709F0C7
:102290001882DF91CF911F910F91FF90EF90DF9007
:1022A000CF90BF909F908F900895043490F762E094
:1022B000812F0E941605CD57DF4F88818F3711F08F
:1022C0008BE08883F401E35EF64F81E090E0918338
:1022D0008083DFCF0434E8F6FE01ED57FF4F8081A5
:1022E000833021F460E0812F0E94A30461E0812FFC
:1022F0000E941605CD57DF4F88818F3751F281E05C
:10230000BACF0C3020F084ED810F833010F661E0FD
:10231000812F0E94160561E0812F0E94160560E062
:10232000812F0E94A304CD57DF4F88818F3709F496
:10233000B0CF83E0A0CF043408F0ABCFCD57DF4F50
:1023400088818F3711F084E08883F601E55CFB4FCC
:1023500080818F3FA9F090E0FC01EE0FFF1FE80F96
:10236000F91FEB5AF54FE0818E2F90E0FC01EE0F44
:10237000FF1FE80FF91FEA54F64F808186FD89CFD1
:102380004FEF5FEF6FEF7FEF812FDF91CF911F91C5
:102390000F91FF90EF90DF90CF90BF909F908F9024
:1023A0000C9419101451123008F073CFCD57DF4F31
:1023B00088818F3709F46DCF86E05DCFCD57DF4F31
:1023C00088818F3709F465CF8CE055CFCD57DF4F2B
:1023D00088818F3709F45DCF8FE04DCF82E492E0A2
:1023E000DF91CF911F910F91FF90EF90DF90CF90F1
:1023F000BF909F908F900C940D100F931F93CF93CD
:10240000DF9381E080938B0480918A04882329F0F4
:1024100010928A048FEF80930102E1E2F5E0C8E1B7
:10242000D5E0A1E8B4E0119219921D9285E0EA325C
:10243000F807C9F70BE314E0C0E0DFEF8AEC8C0F7C
:1024400062E070E0803130F08EEF8C0F843428F43D
:1024500061E070E08C2F0E948D10F801D1938F0104
:10246000CF5FC63459F71092870510928605EFE6C4
:10247000F5E0A8E7B5E085E795E02FE721934D91DA
:102480005D91452B21F0ED012297198218828E175C
:102490009F07A1F7109257051092560510923A0423
:1024A0001092390410926A051092690510928B04FB
:1024B000DF91CF911F910F9108954F925F926F928C
:1024C0007F928F929F92AF92BF92DF92EF92FF9294
:1024D0000F931F93CF93DF93D82E8B01D42FC22F4E
:1024E0006F3F760709F490C081E08093BC05D092DD
:1024F000DE051092BD051092DF058AEA99E00E9480
:10250000EB0A8C2F0E94A209809137049091380425
:102510008230910538F0880F991F880F991F059711
:102520000197F1F70E946F054B015C018091B605A0
:1025300081116CC0CD2FD13208F0C0E281E08093D0
:10254000B6058093B5059FEF9093B4051092B3053F
:102550009C0F9093B20580939105909191058D2DDC
:10256000880F892B8093910580919005813009F027
:102570009EC0109290050E946F054B015C018091F6
:1025800091058093BB008091B8059091B905A09109
:10259000BA05B091BB05892B8A2B8B2BA1F00E9429
:1025A0006F054090B8055090B9056090BA057090DD
:1025B000BB05681979098A099B09461657066806FA
:1025C000790608F444C08091BC0083FDD8CF85EC27
:1025D0008093BC000E946F054B015C018091B605A1
:1025E000813009F466C08091B3058C1710F4C09156
:1025F000B305A2E9B5E0E0E9F4E080E08C1761F111
:102600009D9191938F5FFACF00E08CCF8091B805B8
:102610009091B905A091BA05B091BB05892B8A2B81
:102620008B2B09F483CF0E946F054090B805509022
:10263000B9056090BA057090BB05681979098A09D7
:102640009B09461657066806790608F06FCF8091F9
:10265000B7050E948109C0E01092B104C093B00494
:10266000ED2EF12C8C2F90E0E816F9060CF043C00B
:1026700083E592E00E940D10D092CC030093CD032D
:102680000CEC13E0C8018C5C93408E159F05D4F5CB
:102690000F5F1F4F9091B0048091B104981791F192
:1026A0008AEA99E00E94A40AF8018183EBCF85EEC3
:1026B0008FCF8091B8059091B905A091BA05B091DE
:1026C000BB05892B8A2B8B2B09F488CF0E946F05C1
:1026D0004090B8055090B9056090BA057090BB0560
:1026E000681979098A099B0946165706680679060A
:1026F00008F074CFACCF8E159F050CF0BDCF80E7EE
:1027000092E0B8CFDE5F6D2F70E04CEC53E087E7CE
:10271000DF91CF911F910F91FF90EF90DF90BF90CD
:10272000AF909F908F907F906F905F904F900C94A0
:1027300076088F929F92AF92BF92CF92DF92EF92E4
:10274000FF920F931F93CF93DF93162FEA018B36DF
:1027500009F402C268F5823609F444C798F4813559
:1027600009F4ABC2823509F463C4DF91CF911F91A4
:102770000F91FF90EF90DF90CF90BF90AF909F9020
:102780008F900895843609F484C7893671F780EFF5
:102790000E9451028AE60E945102CAEC8FE7C031C2
:1027A00008F48C2F0E945102CF5FC031B9F703C2E9
:1027B000803709F459C160F58D3609F43CC28F3673
:1027C000A1F6623090F2698170E0123091F08A8156
:1027D000F0E88F9FC0011124682B792B133049F04A
:1027E0008B8190E090E4899F902D88271124682B9D
:1027F000792B8881DF91CF911F910F91FF90EF90FE
:10280000DF90CF90BF90AF909F908F900C947A0DF7
:10281000883709F4EDC08A3709F472C1863709F0A8
:10282000A4CF998195FF10C08CE892E0DF91CF9101
:102830001F910F91FF90EF90DF90CF90BF90AF90DE
:102840009F908F900C940D10888196FB332730F960
:1028500021E0232798719830A1F1E8F4911185CFF8
:1028600091E09093BC058093DE051092BD05109217
:10287000DF0502E00117E8F4FE01E00FF11D6181C0
:102880006795662767958081680F8AEA99E00E94BC
:10289000EB0A0E5FEFCF9031C9F1983109F065CFA7
:1028A0002091010212160CF45EC08FEF809301029A
:1028B0005CCF81E00E94A20983E191E00197F1F7EA
:1028C00054CF9A814B816630D1F430E8439FB001F8
:1028D0001124690F711D4D814795442747959C81AF
:1028E000490FDF91CF911F910F91FF90EF90DF90F3
:1028F000CF90BF90AF909F908F900C945D124795B2
:1029000044274795490F6FEF7FEFEBCFE09101022E
:10291000E7301CF08CEA92E089CF3A819B816630E7
:10292000D9F460E8969FA0011124430F511D9D81A9
:102930009795992797953C81930FEF5FE09301025C
:1029400035E0E302F0011124E25DFA4F8083528307
:1029500041839383248309CF979599279795930F64
:102960004FEF5FEFEACF90E0622F022E000C770B63
:1029700035E0492F50E06417750764F0349FF0018B
:10298000359FF00D1124E25DFA4F4081481719F090
:102990009F5FEFCF90E085E0492F50E06417750707
:1029A0001CF19830F8F4FA0131968E9FD0018F9F78
:1029B000B00D1124A25DBA4F3C91849FF001859F18
:1029C000F00D1124E25DFA4F308311964D915C9128
:1029D00012975283418313963C9113973383149635
:1029E0003C9134839F5FD8CF215020930102BDCE0C
:1029F000623078F0898160E8869F90011124888197
:102A0000820F932F911D009721F0909338048093AB
:102A1000370480918A048111A8CEC0E08CEE8C0F1F
:102A2000823028F466E070E08C2F0E948D10CF5F1A
:102A3000C634A1F781E080938A041092B104109209
:102A4000B0041092BD051092DF050E94630982E96F
:102A50009AE09093D4048093D30483E99AE090930E
:102A6000D8048093D70481CE653008F47ECE1881D7
:102A70008EEF810F843408F078CE0981EA80FB80E4
:102A8000CC81E12FF0E0E55CFB4F80818033C0F426
:102A900090E0FC01EE0FFF1FE80FF91FEB5AF54F16
:102AA000E0818E2F90E0FC01EE0FFF1FE80FF91F71
:102AB000EA54F64F808186FF03C0812F0E94DA0F0F
:102AC00080E8C89FA00111244F0D511D90E8E99E98
:102AD000B0011124600F711D812F0E94191064E054
:102AE00070E0812FDF91CF911F910F91FF90EF90B8
:102AF000DF90CF90BF90AF909F908F900C948D10EF
:102B0000623008F432CE8981E0E88E9F9001112472
:102B10008881820F932F911D0097D9F09093030223
:102B200080930202209102023091030288E290E039
:102B3000B9010E94A82C709389056093880588E9E3
:102B400098E0B9010E94A82C70936C0560936B0506
:102B50000CCE81E090E0E2CF80EF0E9451028CE643
:102B60000E945102CEEF8CEC8C0F803108F059C0DE
:102B700082E00E9451028AE00E94510286ED8C0F91
:102B8000833008F451C0C43430F484E00E94510210
:102B90008EE00E9451028EEE8C0F823030F486E07F
:102BA0000E94510281E00E9451028FE70E9451026F
:102BB000CF5FC43479F487EFDF91CF911F910F91EC
:102BC000FF90EF90DF90CF90BF90AF909F908F904D
:102BD0000C945102C43438F680E00E94510281E026
:102BE0000E9451028BE00E94510281E00E9451023A
:102BF00081E00E94510281E00E94510281E50E9421
:102C0000510281E00E9451028CE00E94510281E059
:102C10000E9451028FE00E94510281E00E94510205
:102C2000A2CFCC3008F0AACF83E00E94510288E006
:102C30000E945102A8CF662309F497CDC88180EF86
:102C40000E9451028EE60E9451028C2F0E94510276
:102C5000C63408F0B0CFD0E0FE01E952F74F8081D2
:102C60000E945102CC0FDD1F8E01035E164FF8014A
:102C700080818F770E945102F801808191819C01AF
:102C80002078232B39F0880F892F881F990B8F7795
:102C90000E945102C35ED64F888199819C012227F0
:102CA000307C232B09F487CF990F880B990F982F2D
:102CB000881F8F770E9451027ECF662309F455CD7D
:102CC0009881892F8F70823009F473C108F09BC0FE
:102CD000882309F490C1813009F047CD913009F083
:102CE00044CD633008F441CDFA80CC80F0E8CF9E2B
:102CF000C0011124CB80C80ED92ED11C01E010E0F8
:102D00008981811102C010E000E0000F111FF8015D
:102D1000E45FFB4FC081D1818E81F81206C08A81A9
:102D20009B81C816D90609F420CD209769F08885C3
:102D300099850E94742D8E8187FD03C060E00E94FA
:102D40001605CE010E94742DF801E45FFB4F11823D
:102D5000108285E190E00E94D82CEC0119821F823C
:102D60001E861F86188A198A81E08D878A871B86AE
:102D700092E09C8788835601AA0CBB1CAC0CBD1C3E
:102D8000BD82AC82C5010E94D82C998788870097A4
:102D900009F4B1C0A50170E060E00E94FD2DDB8266
:102DA000CA82FE828981882341F061E08F2D0E94D2
:102DB000160560E08F2D0E94A3048F2D90E0FC018A
:102DC000EE58FD4FE491F0E0EE0FFF1FE25CFD4F87
:102DD000259134913B8B2A8BFC01E854FD4FE49103
:102DE000EC8BF801E45FFB4FD183C0838E8187FDBC
:102DF00007C061E00E94160560E08E810E94A30476
:102E000081E08983B2CC833009F47AC0843009F040
:102E1000ACCC0B81F0E80F9FC00111240A81080F90
:102E2000192F111D81E090E02981211102C090E04D
:102E300080E0880F991FFC01E45FFB4FC080D180C8
:102E4000F601E280F3800E151F0508F0B2C08D81F7
:102E5000F0E88F9F900111248C81820F932F911D98
:102E6000009731F0800F911F8E159F0508F47C01AB
:102E70008884912CB12CA12C8EE0880C991CAA1C62
:102E8000BB1C8A95D1F7898590E0B0E0A0E025E1F0
:102E9000880F991FAA1FBB1F2A95D1F7880D991D6E
:102EA000AA1DBB1D2E814C015D01820E911CA11C2F
:102EB000B11C8F8190E0B0E0A0E037E0880F991F4F
:102EC000AA1FBB1F3A95D1F7880E991EAA1EBB1EDA
:102ED0000E151F0508F06DC0F60182819381081759
:102EE000190730F4A5019401B801C6010E945206E9
:102EF0000F5F1F4FEDCF1D821C821B821A8251CFA4
:102F00006B8120E8629FB00111248A81680F711DD6
:102F100081E090E02981211102C090E080E0880FDB
:102F2000991FFC01E45FFB4F80819181FC012281AC
:102F300033816217730708F018CC2E8130E050E01F
:102F400040E0EEE0220F331F441F551FEA95D1F7F2
:102F5000CF80D12CF12CE12CF5E1CC0CDD1CEE1C4A
:102F6000FF1CFA95D1F72C0D3D1D4E1D5F1DEC8108
:102F70002E0F311D411D511DCD80D12CF12CE12C86
:102F8000A7E0CC0CDD1CEE1CFF1CAA95D1F72C0D84
:102F90003D1D4E1D5F1DDF91CF911F910F91FF9041
:102FA000EF90DF90CF90BF90AF909F908F900C9458
:102FB000520681E090E02981211102C090E080E07A
:102FC000880F991FFC01E45FFB4F80819181FC0118
:102FD00020853185232B09F4C8CBDF91CF911F9138
:102FE0000F91FF90EF90DF90CF90BF90AF909F90A8
:102FF0008F900C94B90681E090E02981211102C0E4
:1030000090E080E0880F991FFC01E45FFB4FC081D6
:10301000D1814C815D8170E060E0888599850E9456
:10302000FD2D88859985892B09F49FCBCE01D5CFBD
:10303000662309F49ACB88810A81F0E80F9F9001FA
:1030400011240981020F132F111D0115110571F4AF
:10305000DF91CF911F910F91FF90EF90DF90CF9074
:10306000BF90AF909F908F900C94D10490910002EC
:103070009817E9F09F3F09F078CB80930002E4E4D1
:10308000F3E0C4919C2FCF3F09F46FCBC23009F419
:103090002BC108F0C1C0CC2309F4E8C0C13009F449
:1030A00001C197FD62CB61E00E9416050AC0E4E40D
:1030B000F3E0C491C7FD59CB61E00E941605CC2313
:1030C00019F0C23009F0D9C16801F12CE12C60E09F
:1030D00072E18AE790E0A70198010E94452A490120
:1030E0005A01BA01A90141505109610971094F3FC3
:1030F00051056105710509F00CF4A4C160E472E4A6
:103100008FE090E0A70198010E94452ABA01A90129
:103110004150510961097109C23009F050C182E082
:103120004F3F51056105710509F00CF463C060E97A
:1031300070ED83E090E0A70198010E94452ABA0152
:10314000A901415051096109710983E04F3F5105BF
:103150006105710509F00CF44DC068E478EE81E07A
:1031600090E0A70198010E94452ABA01A9014150A7
:1031700051096109710984E04F3F510561057105ED
:10318000C9F1C4F164E274EF80E090E0A701960118
:103190000E94452ABA01A9014150510961097109EA
:1031A00085E04F3F51056105710521F118F162E19C
:1031B0007AE780E090E0A70196010E94452ABA01D3
:1031C000A901415051096109710986E04F3F51053C
:1031D0006105710579F070F0B501A4019AE075956B
:1031E0006795579547959A95D1F7415051096109CF
:1031F000710987E09091B100987F892B8093B1008D
:10320000C23009F4DCC10CF0D3C1CC2309F421C1D4
:10321000C13009F0AACA5FC1C43009F4AEC008F4D5
:1032200089C0C53009F03DCF1092200110922101D4
:1032300090912101986090932101909121019160DA
:1032400090932101282F30E0F901EE58FD4FE491D1
:10325000F0E0EE0FFF1FE25CFD4F45915491F90144
:10326000E854FD4FE491E0931C0426CF14BC15BC38
:1032700094B5926094BD95B5916095BD282F30E0CE
:10328000F901EE58FD4FE491F0E0EE0FFF1FE25C14
:10329000FD4F45915491F901E854FD4FE491E093BD
:1032A00020040ACF1092800010928100909181003A
:1032B000986090938100909181009160909381003B
:1032C000282F30E0F901EE58FD4FE491F0E0EE0FC9
:1032D000FF1FE25CFD4F45915491F901E854FD4F09
:1032E000E491E0931F04E8CE1092B0001092B10078
:1032F0009091B00092609093B0009091B100916075
:103300009093B100282F30E0F901EE58FD4FE49181
:10331000F0E0EE0FFF1FE25CFD4F4591549150939A
:10332000020540930105F901E854FD4FE491E09353
:103330000305C2CE109290001092910090919100DE
:10334000986090939100909191009160909391007A
:10335000282F30E0F901EE58FD4FE491F0E0EE0F38
:10336000FF1FE25CFD4F45915491F901E854FD4F78
:10337000E491E0931E04C3E09FCE1092A00010924F
:10338000A1009091A10098609093A1009091A1005C
:1033900091609093A100282F30E0F901EE58FD4F85
:1033A000E491F0E0EE0FFF1FE25CFD4F4591549178
:1033B000F901E854FD4FE491E0931D047DCE4F3FA9
:1033C00051056105710509F00CF455C068E478EE0B
:1033D00081E090E0A70198010E94452ABA01A90165
:1033E000415051096109710984E0C111DACE83E0CD
:1033F0004F3F51056105710541F13CF162E17AE70A
:1034000080E090E0A70196010E94452ABA01A90137
:10341000415051096109710984E04F3F510561052F
:10342000710599F090F0B501A4018AE07595679552
:10343000579547958A95D1F741505109610971090E
:1034400085E003C081E0C111D5CE95B5987F892B69
:1034500085BD47BD8FEF9FEFDC01809331049093D2
:103460003204A0933304B093340480916E008260E0
:1034700080936E007AC982E0E6CFF12CE12C60E007
:1034800072E18AE790E0A70198010E94452ABA01FB
:10349000A901415051096109710991E04115510596
:1034A00021E0620771057CF068E478EE81E090E04D
:1034B000A70198010E94452ABA01A901415051096A
:1034C0006109710993E0C130D9F480918100887F4E
:1034D000892B8093810050938900409388008FEF5F
:1034E0009FEFDC0180932D0490932E04A0932F0472
:1034F000B093300480916F00826080936F0035C973
:10350000C330D9F480919100887F892B80939100FA
:1035100050939900409398008FEF9FEFDC018093C8
:10352000290490932A04A0932B04B0932C04809137
:10353000710082608093710018C9C430D9F4809101
:10354000A100887F892B8093A1005093A90040930C
:10355000A8008FEF9FEFDC01809325049093260451
:10356000A0932704B0932804809172008260809316
:103570007200FBC8C53009F043CE80912101887FDD
:10358000892B8093210150932901409328018FEFCB
:103590009FEFDC018093210490932204A0932304E5
:1035A000B093240480917300826080937300DDC81F
:1035B000C43059F20CF4ACCFC53029F3D6C84093CF
:1035C000B3008FEF9FEFDC01809304059093050516
:1035D000A0930605B09307058091700082608093E8
:1035E0007000C3C8209186053091870526303105CB
:1035F0000CF04CC0888180933604998190933504F7
:10360000CB8060E8C69EA0011124CA80C40ED52ECE
:10361000D11C0D2C000CEE08FF0821593A4FF9017E
:1036200080836CE070E00E948D106CE070E080910F
:1036300035040E948D108BE090E00E94D82CEC01A4
:1036400020913504809136048883298391E02813E2
:1036500090E09A8361E00E94160560E089810E94F3
:103660001605CF82D886E986FA86809186059091E4
:103670008705FC01EE0FFF1FE858FA4FD183C08386
:10368000019690938705809386056FC88DEB92E035
:10369000CDC82091690530916A052630310554F571
:1036A0009981492F50E04631510531F04B30510599
:1036B00019F08AEF92E0BAC88881F901EE59FA4F01
:1036C0008083245A3A4FF90190836FE070E00E94A2
:1036D0008D106091690570916A056F5F7F4F7093DF
:1036E0006A056093690580916B0590916C050E9455
:1036F000BC2C2ACA8FE293E099C81F920F920FB692
:103700000F9211240BB60F922F933F934F935F9319
:103710006F937F938F939F93AF93BF93EF93FF9399
:103720008091040590910505A0910605B0910705CB
:10373000892B8A2B8B2BE1F190910305E0910105F8
:10374000F091020580818927808380910405909102
:103750000505A0910605B0910705181619061A0669
:103760001B069CF48091040590910505A091060527
:10377000B09107050197A109B109809304059093C1
:103780000505A0930605B0930705FF91EF91BF9142
:10379000AF919F918F917F916F915F914F913F91E9
:1037A0002F910F900BBE0F900FBE0F901F9018958A
:1037B000809100020E94D104E8CF1F920F920FB6B1
:1037C0000F9211240BB60F922F933F934F935F9359
:1037D0006F937F938F939F93AF93BF93EF93FF93D9
:1037E00080EE95E00E945F03FF91EF91BF91AF9152
:1037F0009F918F917F916F915F914F913F912F9109
:103800000F900BBE0F900FBE0F901F9018951F9238
:103810000F920FB60F9211240BB60F922F933F9376
:103820004F935F936F937F938F939F93AF93BF93C8
:10383000EF93FF9380EE95E00E94E102FF91EF91FC
:10384000BF91AF919F918F917F916F915F914F91B8
:103850003F912F910F900BBE0F900FBE0F901F90B6
:1038600018951F920F920FB60F9211240BB60F925C
:103870002F933F934F935F936F937F938F939F9378
:10388000AF93BF93EF93FF938DE796E00E945F03A2
:10389000FF91EF91BF91AF919F918F917F916F9128
:1038A0005F914F913F912F910F900BBE0F900FBEE4
:1038B0000F901F9018951F920F920FB60F92112420
:1038C0000BB60F922F933F934F935F936F937F931A
:1038D0008F939F93AF93BF93EF93FF938DE796E002
:1038E0000E94E102FF91EF91BF91AF919F918F9163
:1038F0007F916F915F914F913F912F910F900BBEF0
:103900000F900FBE0F901F9018951F920F920FB639
:103910000F9211240BB60F922F933F934F935F9307
:103920006F937F938F939F93AF93BF93EF93FF9387
:103930008AE197E00E945F03FF91EF91BF91AF9101
:103940009F918F917F916F915F914F913F912F91B7
:103950000F900BBE0F900FBE0F901F9018951F92E7
:103960000F920FB60F9211240BB60F922F933F9325
:103970004F935F936F937F938F939F93AF93BF9377
:10398000EF93FF938AE197E00E94E102FF91EF91AC
:10399000BF91AF919F918F917F916F915F914F9167
:1039A0003F912F910F900BBE0F900FBE0F901F9065
:1039B00018951F920F920FB60F9211240BB60F920B
:1039C0002F933F934F935F936F937F938F939F9327
:1039D000AF93BF93EF93FF9387EB97E00E945F0352
:1039E000FF91EF91BF91AF919F918F917F916F91D7
:1039F0005F914F913F912F910F900BBE0F900FBE93
:103A00000F901F9018951F920F920FB60F921124CE
:103A10000BB60F922F933F934F935F936F937F93C8
:103A20008F939F93AF93BF93EF93FF9387EB97E0B1
:103A30000E94E102FF91EF91BF91AF919F918F9111
:103A40007F916F915F914F913F912F910F900BBE9E
:103A50000F900FBE0F901F9018951F920F920FB6E8
:103A60000F9211242F933F938F939F93AF93BF9304
:103A700080912A0590912B05A0912C05B0912D05E0
:103A80003091FC0423E0230F2D3758F50196A11D3A
:103A9000B11D2093FC0480932A0590932B05A093DD
:103AA0002C05B0932D058091FD049091FE04A0910A
:103AB000FF04B09100050196A11DB11D8093FD0486
:103AC0009093FE04A093FF04B0930005BF91AF91C3
:103AD0009F918F913F912F910F900FBE0F901F904C
:103AE000189526E8230F0296A11DB11DD2CF1F9273
:103AF0000F920FB60F9211240F900FBE0F901F90D0
:103B000018951F920F920FB60F9211240BB60F92B9
:103B10002F933F934F935F936F937F938F939F93D5
:103B2000AF93BF93EF93FF938091B900887F803666
:103B300009F44DC008F040C0883209F4A9C028F546
:103B4000803109F49DC0C8F4882309F4FBC0883093
:103B500009F496C0FF91EF91BF91AF919F918F9122
:103B60007F916F915F914F913F912F910F900BBE7D
:103B70000F900FBE0F901F901895883109F488C0E0
:103B8000803241F78093B40514C0803409F49DC09D
:103B900040F48033B9F38833E9F68093B40585ECBB
:103BA000B0C0803509F485C0883509F496C08834E2
:103BB00089F60E945510CECF883909F48CC038F5AB
:103BC000883729F050F4883611F0803719F683E0F1
:103BD0008093B6051092F90457C0883809F47BC069
:103BE000803919F0803809F0B5CF8091F90480321E
:103BF00008F071C0E091F90481E08E0F8093F90420
:103C00008091BB00F0E0E752FB4F80833DC0803BDA
:103C100039F0E0F4803A09F479C0883A09F09ACF93
:103C200084E08093B6051092D6041092D504E091FA
:103C3000D304F091D40419958091D50481110FC05B
:103C400081E08093D5041092B30409C0803C09F44C
:103C5000A6CF883C09F4A3CF883B09F07BCFE09145
:103C6000D60481E08E0F8093D604F0E0ED54FB4F34
:103C700080818093BB009091D6048091D50429C0A7
:103C8000809191058093BB0085EC8093BC0062CF4E
:103C90009091B3058091B205981758F5E091B3055E
:103CA00081E08E0F8093B305F0E0EE56FA4F8081ED
:103CB000E9CFE091B30581E08E0F8093B305809149
:103CC000BB00F0E0EE56FA4F80839091B3058091EF
:103CD000B2059817C8F285E8D8CFE091B30581E026
:103CE0008E0F8093B3058091BB00F0E0EE56FA4F43
:103CF00080838091B50581115CCF81E08093900530
:103D000084EA8093BC001092B60524CF85EC8093A2
:103D1000BC001092B6058091F904803230F4E09135
:103D2000F904F0E0E752FB4F10826091F90470E073
:103D3000E091D704F091D80489ED94E019951092A0
:103D4000F90408CF1092B40534CF1F920F920FB62A
:103D50000F9211240BB60F922F933F934F935F93C3
:103D60006F937F938F939F93AF93BF93EF93FF9343
:103D700048E251E064E271E090E080E00E94C80B0C
:103D8000FF91EF91BF91AF919F918F917F916F9133
:103D90005F914F913F912F910F900BBE0F900FBEEF
:103DA0000F901F9018951F920F920FB60F9211242B
:103DB0000BB60F922F933F934F935F936F937F9325
:103DC0008F939F93AF93BF93EF93FF9348EA50E095
:103DD00064EA70E083E090E00E94C80BFF91EF91ED
:103DE000BF91AF919F918F917F916F915F914F9113
:103DF0003F912F910F900BBE0F900FBE0F901F9011
:103E000018951F920F920FB60F9211240BB60F92B6
:103E10002F933F934F935F936F937F938F939F93D2
:103E2000AF93BF93EF93FF9348E950E064E970E0EC
:103E300082E090E00E94C80BFF91EF91BF91AF919B
:103E40009F918F917F916F915F914F913F912F91B2
:103E50000F900BBE0F900FBE0F901F9018951F92E2
:103E60000F920FB60F9211240BB60F922F933F9320
:103E70004F935F936F937F938F939F93AF93BF9372
:103E8000EF93FF9348E850E064E870E081E090E051
:103E90000E94C80BFF91EF91BF91AF919F918F91BD
:103EA0007F916F915F914F913F912F910F900BBE3A
:103EB0000F900FBE0F901F9018951092E30510926F
:103EC000E20588EE93E0A0E0B0E08093E4059093F3
:103ED000E505A093E605B093E7052EE032E03093C8
:103EE000E1052093E00545E351E05093ED05409353
:103EF000EC0544E351E05093EF054093EE0540E3B9
:103F000051E05093F1054093F00541E351E05093A7
:103F1000F3054093F20542E351E05093F5054093D9
:103F2000F40546E351E05093F7054093F6051092EF
:103F3000F9051092FA051092FB051092FC051092FB
:103F4000800610927F068093810690938206A0934C
:103F50008306B093840630937E0620937D0645ED5C
:103F600050E050938A064093890644ED50E0509308
:103F70008C0640938B0640ED50E050938E064093A4
:103F80008D0641ED50E05093900640938F0642ED30
:103F900050E0509392064093910646ED50E05093C6
:103FA00094064093930610929606109297061092EC
:103FB00098061092990610921D0710921C07809384
:103FC0001E0790931F07A0932007B09321073093FB
:103FD0001B0720931A074DEC50E05093270740939E
:103FE00026074CEC50E0509329074093280748ECF3
:103FF00050E050932B0740932A0749EC50E0509330
:104000002D0740932C074AEC50E050932F07409324
:104010002E074EEC50E0509331074093300710923A
:10402000330710923407109235071092360710921A
:10403000BA071092B9078093BB079093BC07A0936F
:10404000BD07B093BE073093B8072093B70725ECA0
:1040500030E03093C4072093C30724EC30E0309362
:10406000C6072093C50720EC30E03093C8072093A3
:10407000C70721EC30E03093CA072093C90722EC30
:1040800030E03093CC072093CB0726EC30E0309320
:10409000CE072093CD071092D0071092D10710922F
:1040A000D2071092D30724E538E0109295081092B9
:1040B0009408309398082093970840E450E0509378
:1040C0009A084093990810929B0810929C081092AD
:1040D0009E0810929D0810929F081092A1081092BD
:1040E000A0081092A3081092A2081092A50810929E
:1040F000A4081092A7081092A6081092A90810927E
:10410000A8081092AB081092AA081092AD0810925D
:10411000AC081092B3081092B2081092B508109231
:10412000B4081092B7081092B6081092B90810920D
:10413000B8081092C7081092C608109296081092FC
:10414000D4081092D6081092D5081092A90947ED0C
:1041500051E05093BB084093BA0841EE51E05093B0
:10416000BD084093BC084BEE51E05093BF0840930C
:10417000BE0845EF51E05093C1084093C0084FEF8F
:1041800051E05093C3084093C20849E052E0509375
:10419000C5084093C40843E152E05093C9084093D6
:1041A000C80844E152E05093CB084093CA0847E363
:1041B00059E05093CD084093CC083093AF0820933A
:1041C000AE084DEA52E05093CF084093CE083093AA
:1041D000B1082093B0082FE132E03093D10820934A
:1041E000D0081092AD091092AC098093AE0990935B
:1041F000AF09A093B009B093B10980E292E0909327
:10420000AB098093AA09E5E5FAE02FEF48EB5BE004
:104210008091460A803348F591E0980F9093460AC2
:10422000808390E0DC01AA0FBB1FA80FB91FAA541E
:10423000B64F12965C934E93119733968AE0E53E03
:10424000F80731F710924C0A1092510A1092520A54
:104250001092530A1092540A10924D0A10924E0A6C
:1042600010924F0A1092500A08952083E6CFCF9300
:10427000DF93CDB7DEB72C970FB6F894DEBF0FBE35
:10428000CDBF789484B5826084BD84B5816084BDDF
:1042900085B5826085BD85B5816085BD80916E00E4
:1042A000816080936E001092810080918100826015
:1042B0008093810080918100816080938100809152
:1042C00080008160809380008091B1008460809341
:1042D000B1008091B00081608093B0008091910026
:1042E0008260809391008091910081608093910021
:1042F000809190008160809390008091A100826005
:104300008093A1008091A10081608093A1008091A1
:10431000A00081608093A000809121018260809341
:1043200021018091210181608093210180912001F0
:1043300081608093200180917A00846080937A006C
:1043400080917A00826080937A0080917A00816007
:1043500080937A0080917A00806880937A0010922E
:10436000C1008FE08093D4088091D5089091D60841
:104370000E94742D0091D40810E0C80101960E949B
:10438000D82C9093D6088093D508FC01E00FF11F3C
:10439000108262E0F62EDC01FC9225E011962C934F
:1043A000A801425051096DE873E002960E94042E64
:1043B0008AE79DE090931305809312058FEA9CE0B5
:1043C000909311058093100582E89CE090930F056F
:1043D00080930E058DE59FE090930D0580930C056D
:1043E0008DE890E190930B0580930A0585E09FE0AE
:1043F000909309058093080589E993E19093150549
:10440000809314058DEF91E1909317058093160525
:10441000E091C707F091C807F082E091C707F091DB
:10442000C8071082E091C307F091C4071082E091A1
:10443000C507F091C60780E180831092CF07E09115
:10444000CB07F091CC0786E08083E091C907F0911B
:10445000CA07808180618083E091C907F091CA0713
:10446000808188608083E091C907F091CA078081CC
:1044700080688083E091C907F091CA0780818F7DB1
:1044800080838091A90981114FC061E08DE00E9475
:10449000160562ED70E080E090E00E94940561E016
:1044A0008DE00E94A30468E270E080E090E00E944A
:1044B000940560E08DE00E94A30462ED70E080E06E
:1044C00090E00E94940561E08DE00E94A30468E200
:1044D00070E080E090E00E94940560E08DE00E9432
:1044E000A3046AEF70E080E090E00E94940515E07C
:1044F00062ED70E080E090E00E94940561E08DE064
:104500000E94A30468E270E080E090E00E949405BD
:1045100060E08DE00E94A304115051F76DE770E058
:1045200080E090E00E94940587EB97E09093D30899
:104530008093D208909395088093940884E998E03A
:104540000E94270284E598E00E94C3080E94FD11A2
:10455000812C40EC942E49E7A42E44ECB42E53E277
:10456000252E312C80912105882391F10091180589
:1045700002FDE2C210E003FF06C083E00E947A045D
:10458000892B09F0186004FF06C084E00E947A04B9
:10459000892B09F0106105FF06C085E00E947A04AE
:1045A000892B09F0106206FF06C086E00E947A049B
:1045B000892B09F0106407FF06C087E00E947A0487
:1045C000892B09F0106840E0612F80E00E941A0FEB
:1045D00080912205882309F44AC000911905102F03
:1045E000117000FF07C088E00E947A0411E0892B57
:1045F00009F410E001FF06C089E00E947A04892BCB
:1046000009F0126002FF06C08AE00E947A04892B3A
:1046100009F0146003FF06C08BE00E947A04892B26
:1046200009F0186004FF06C08CE00E947A04892B10
:1046300009F0106105FF06C08DE00E947A04892B05
:1046400009F0106206FF06C08EE00E947A04892BF2
:1046500009F0106407FF06C08FE00E947A04892BDE
:1046600009F0106840E0612F81E00E941A0F8091EC
:104670002305882309F44AC000911A05102F1170F0
:1046800000FF07C080E10E947A0411E0892B09F441
:1046900010E001FF06C081E10E947A04892B09F035
:1046A000126002FF06C082E10E947A04892B09F0A1
:1046B000146003FF06C083E10E947A04892B09F08D
:1046C000186004FF06C084E10E947A04892B09F077
:1046D000106105FF06C085E10E947A04892B09F06C
:1046E000106206FF06C086E10E947A04892B09F059
:1046F000106407FF06C087E10E947A04892B09F045
:10470000106840E0612F82E00E941A0F809124051A
:10471000882309F44AC000911B05102F117000FF77
:1047200007C088E10E947A0411E0892B09F410E0A7
:1047300001FF06C089E10E947A04892B09F012600A
:1047400002FF06C08AE10E947A04892B09F01460F6
:1047500003FF06C08BE10E947A04892B09F01860E0
:1047600004FF06C08CE10E947A04892B09F01061D5
:1047700005FF06C08DE10E947A04892B09F01062C2
:1047800006FF06C08EE10E947A04892B09F01064AE
:1047900007FF06C08FE10E947A04892B09F0106898
:1047A00040E0612F83E00E941A0F80912505882345
:1047B00009F44AC000911C05102F117000FF07C0BA
:1047C00080E20E947A0411E0892B09F410E001FFD5
:1047D00006C081E20E947A04892B09F0126002FF70
:1047E00006C082E20E947A04892B09F0146003FF5C
:1047F00006C083E20E947A04892B09F0186004FF46
:1048000006C084E20E947A04892B09F0106105FF3A
:1048100006C085E20E947A04892B09F0106206FF27
:1048200006C086E20E947A04892B09F0106407FF13
:1048300006C087E20E947A04892B09F0106840E0E4
:10484000612F84E00E941A0F80912605882309F4C5
:104850004AC000911D05102F117000FF07C088E2AB
:104860000E947A0411E0892B09F410E001FF06C0D0
:1048700089E20E947A04892B09F0126002FF06C0C7
:104880008AE20E947A04892B09F0146003FF06C0B3
:104890008BE20E947A04892B09F0186004FF06C09D
:1048A0008CE20E947A04892B09F0106105FF06C092
:1048B0008DE20E947A04892B09F0106206FF06C07F
:1048C0008EE20E947A04892B09F0106407FF06C06B
:1048D0008FE20E947A04892B09F0106840E0612F72
:1048E00085E00E941A0F80912705882309F44AC0A9
:1048F00000911E05102F117000FF07C080E30E9479
:104900007A0411E0892B09F410E001FF06C081E36D
:104910000E947A04892B09F0126002FF06C082E32C
:104920000E947A04892B09F0146003FF06C083E318
:104930000E947A04892B09F0186004FF06C084E302
:104940000E947A04892B09F0106105FF06C085E3F7
:104950000E947A04892B09F0106206FF06C086E3E4
:104960000E947A04892B09F0106407FF06C087E3D0
:104970000E947A04892B09F0106840E0612F86E0DC
:104980000E941A0F80912805882309F44AC00091DB
:104990001F05102F117000FF07C088E30E947A04E2
:1049A00011E0892B09F410E001FF06C089E30E94A1
:1049B0007A04892B09F0126002FF06C08AE30E9484
:1049C0007A04892B09F0146003FF06C08BE30E9470
:1049D0007A04892B09F0186004FF06C08CE30E945A
:1049E0007A04892B09F0106105FF06C08DE30E944F
:1049F0007A04892B09F0106206FF06C08EE30E943C
:104A00007A04892B09F0106407FF06C08FE30E9427
:104A10007A04892B09F0106840E0612F87E00E943A
:104A20001A0F809129058823D1F100912005102FBC
:104A3000117000FF07C080E40E947A0411E0892B06
:104A400009F410E001FF06C081E40E947A04892B7A
:104A500009F0126002FF06C082E40E947A04892BEA
:104A600009F0146003FF06C083E40E947A04892BD6
:104A700009F0186004FF06C084E40E947A04892BC0
:104A800009F0106105FF06C085E40E947A04892BB5
:104A900009F0106240E0612F88E00E941A0F11E0D7
:104AA0008091D2089091D308DC01ED91FC910084B3
:104AB000F185E02D1995892B09F4DCC18091D2088C
:104AC0009091D308DC01ED91FC910284F385E02DF7
:104AD00019959C018F3F980719F3982F80919F0893
:104AE000882309F49BC0973F09F087C010929F0864
:104AF000A0919708B09198086C91613709F440C073
:104B0000693709F064C0E091CC08F091CD08309786
:104B100039F28091A0089091A10883309105A0F40A
:104B200030E020E050E040E070E060E08091AE08CE
:104B30009091AF081995B4CF82E00E947A04892B36
:104B400009F418CD14E017CDBD016D5F7F4F0397B9
:104B50000E948E02BC016D5F7F4F80E00E945E026A
:104B6000E0919708F09198089F012D5F3F4F428197
:104B700050E0618170E0E091CC08F091CD08D6CF93
:104B80008091C8089091C908892B09F489CFBD018B
:104B90006F5F7F4F8091A0089091A10801970E94BC
:104BA0008E02BC016F5F7F4F80E00E945E026091C9
:104BB0009708709198086F5F7F4FE091C808F09157
:104BC000C9088091B4089091B508199569CFE09112
:104BD000CA08F091CB08309709F462CF9D012F5F8E
:104BE0003F4F4091A0085091A10841505109809138
:104BF000B6089091B708199553CF6091A0087091AD
:104C0000A108822F0E945E028091A0089091A108C5
:104C100001969093A1088093A00842CF60919D08CF
:104C200070919E086115710509F4B1C027FDAFC0F0
:104C30006150710970939E0860939D08822F0E94B5
:104C40005E0280919D0890919E08892B09F028CFE3
:104C500080919B08882309F423CF803D09F483C009
:104C600040F4803949F1803C09F469C010929B08F6
:104C700017CF843FE1F1853F09F44DC0803EB1F785
:104C8000E091BA08F091BB08309781F3A0919708A2
:104C9000B09198084C9120E8429FC00111241196D0
:104CA0004C91480F592F511D60919C088091A2088A
:104CB0009091A3081995DACFE091BC08F091BD0856
:104CC0003097A1F2A0919708B09198084C9130E8E4
:104CD000439FC001112411964C91480F592F511D2B
:104CE00060919C088091A4089091A508E3CFE09181
:104CF000C208F091C308309709F4B8CFA091970883
:104D0000B09198084C9150E011966C918091AA084E
:104D10009091AB08CFCFE091C408F091C5083097CF
:104D200009F4A4CFA0919708B09198084C9150E055
:104D300011966C918091AC089091AD08BBCFE09139
:104D4000BE08F091BF08309709F490CFA091970862
:104D5000B09198084C9150E060919C088091A60811
:104D60009091A708A7CFE091C008F091C1083097B3
:104D700009F47CCFA0919708B09198084C9150E02D
:104D800060919C088091A8089091A90893CF903FCA
:104D900030F4822F8F7080939C08922F907F903FE9
:104DA00009F442C0A0F4903CC1F160F4903909F0DC
:104DB00077CEA2E0B0E0B0939E08A0939D089093B8
:104DC0009B086ECE903D49F1903E99F369CE993F94
:104DD00009F444C028F48CE0890F823050F360CE8F
:104DE0009F3F09F05DCE10929E0810929D08109290
:104DF0009B0810929C0890E080E0209199083091E7
:104E00009A0882179307B8F4E0919708F0919808F0
:104E1000E80FF91F10820196F0CFE1E0F0E0F09387
:104E20009E08E0939D08CBCF10939F081092A10895
:104E30001092A00835CE10929F081092A1081092EF
:104E4000A008E091D008F091D1088091B808909125
:104E5000B908309709F424CE199522CEE091CE08F6
:104E6000F091CF08309709F41BCE8091B008909153
:104E7000B108F2CF8FB7F89400912A0510912B0555
:104E800020912C0530912D058FBF80918C0590913C
:104E90008D05A0918E05B0918F0540910202509131
:104EA000030270E060E0081B190B2A0B3B0B401754
:104EB00051076207730708F0E5C2840F951FA61F0C
:104EC000B71F80938C0590938D05A0938E05B093AA
:104ED0008F0580918A0590918B059C012F5F3F4F34
:104EE00030938B0520938A052091880530918905A0
:104EF000281739070CF0CAC010928B0510928A054A
:104F0000C0908605D0908705C114D10409F4BEC0B5
:104F1000E0908405F0908505F701EE0FFF1FE8583B
:104F2000FA4F00811181D80112968C911297882333
:104F300021F061E08C910E94160560E0F80180810B
:104F40000E94A30483E090E00197F1F761E0D801AB
:104F50008C910E94A304C1010197F1F760E0F80170
:104F600080810E94A304D80112968C911297882305
:104F700021F060E08C910E9416050E946F05F801F7
:104F80006383748385839683D80111968C910E94E4
:104F90007A04892BA1F40E946F05F80143805480A4
:104FA0006580768064197509860997094780508461
:104FB00061847284461657066806790628F70E94AF
:104FC0006F05D80113966D937D938D939C931697DF
:104FD000F80181810E947A04892BC1F00E946F053B
:104FE000D80113964D905D906D907C901697641942
:104FF00075098609970917964D905D906D907C9084
:105000001A97461657066806790610F70E946F052C
:10501000F80123813481CB01821B930B68E370E09C
:105020000E94A82CE0927705F1E0CF1AD108EC1489
:10503000FD040CF092C02FEFE21AF20AF0928505FF
:10504000E0928405862F8F7780937605660F672F11
:10505000661F770B71956093750580EF0E94510272
:1050600083E60E945102E0917705F0E0E159FA4FA2
:1050700080810E945102809176050E9451028091A8
:1050800075050E94510287EF0E94510280916D05C3
:1050900090916E059C012F5F3F4F30936E052093DA
:1050A0006D0520916B0530916C05281739070CF0C0
:1050B00031C1A7EDB8E08C918F3009F02BC1209160
:1050C000690530916A052115310509F423C18091E4
:1050D0006805482F50E0FA01EE59FA4FF080FA01C6
:1050E000E45AFA4FE08010926E0510926D0521503F
:1050F000310942175307B4F58F5F8093680510920A
:1051000058051092590510925A0510925B0580912E
:105110004C0AB6E1EB1245C1882309F0F89461E02E
:105120008F2D0E94C7058C0180914C0A882309F0BD
:10513000789401151105C9F080924D0A90924E0A9B
:10514000A0924F0AB092500A8092510A9092520A4D
:10515000A092530AB092540A9EC0109285051092F4
:10516000840570CF10926805CACF1091480AC0908C
:10517000470A6091470A7091480A76276727762781
:1051800090E080E00E94442B2DEC3CEC4CEC5DE385
:105190000E940B2C60934D0A70934E0A80934F0A25
:1051A0009093500AD090490A00914A0A6D2D70E000
:1051B000762F6627600F711D072E000C880B990B48
:1051C0000E94462B2DEC3CEC4CEC5DE30E940B2C3A
:1051D0006093510A7093520A8093530A9093540A31
:1051E0001C0DD10E0D0D80914B0A081342C1809108
:1051F0004D0A90914E0AA0914F0AB091500A8D83AA
:105200009E83AF83B887AE014F5F5F4FBC01CD0176
:105210000E94D72B2B013C0169817A818B819C8173
:105220000E94152B6093580520E030E048EC52E4D2
:10523000C301B2010E940B2C0E94152B60935905EB
:105240008091510A9091520AA091530AB091540A48
:1052500089879A87AB87BC87AE014F5F5F4FBC01E0
:10526000CD010E94D72B2B013C0169817A818B8172
:105270009C810E94152B60935A0520E030E048EC99
:1052800052E4C301B2010E940B2C0E94152B6093C3
:105290005B0510E000E080EF0E94510285E60E946D
:1052A00051028F2D0E9451028E2D0E945102C80181
:1052B00017FF03C09195819591090E94510220E04A
:1052C00030E0A9016D817E818F8198850E94D22B6B
:1052D00087FDD4C080E00E94510220E030E0A901A7
:1052E00069857A858B859C850E94D22B87FDC8C0F5
:1052F00080E00E94510208E515E0D8018D918D01F2
:105300000E945102ECE5F5E0E017F107B1F787EFF5
:105310000E94510204E518E08AECF82EFFE0FF1528
:10532000C8F0F801ED57FF4F8081823099F48091E9
:105330005605909157050F2C02C0959587950A94B4
:10534000E2F780FF07C08F2D0E945205BC018F2D10
:105350000E941508F3940F5F1F4F20E1F212DECF79
:105360008091010287FD8EC010E005E0212F30E022
:1053700080910102082E000C990B821793070CF400
:1053800081C0029FF001039FF00D1124E25DFA4FEE
:10539000618172812481438180810E945D121F5F3F
:1053A000E5CF882309F0F89462E18F2D0E94C705AC
:1053B0008C0180914C0A882309F07894011511051D
:1053C00009F0BACE1091470AC090480A6C2D70E0DF
:1053D00090E080E00E94462B2DEC3CEC4CEC5DE331
:1053E0000E940B2C2B013C01612F70E090E080E0CB
:1053F0000E94462B9B01AC01C301B2010E94A92A65
:1054000060934D0A70934E0A80934F0A9093500A0E
:105410000091490AD0904A0A602F6F7770E090E0BF
:1054200080E00E94462B2B013C016D2D70E090E046
:1054300080E00E94462B2DEC3CEC4CEC5DE30E949E
:105440000B2C9B01AC01C301B2010E94A92A07FDEC
:1054500013C06093510A7093520A8093530A909339
:10546000540A1C0D010FD00E80914B0AD81609F476
:10547000BECE0FEF1FEF0FCF9058EBCF81E02BCFB9
:1054800081E037CF0E94EE036DC8052E97FB1EF416
:1054900000940E945C2A57FD07D00E94772A07FCDF
:1054A00003D04EF40C945C2A50954095309521958C
:1054B0003F4F4F4F5F4F0895909580957095619540
:1054C0007F4F8F4F9F4F08950E94992AA59F900D5F
:1054D000B49F900DA49F800D911D11240895B7FFD6
:1054E0000C94642A0E94642A821B930B0895A1E203
:1054F0001A2EAA1BBB1BFD010DC0AA1FBB1FEE1F4E
:10550000FF1FA217B307E407F50720F0A21BB30B98
:10551000E40BF50B661F771F881F991F1A9469F714
:1055200060957095809590959B01AC01BD01CF0170
:105530000895A29FB001B39FC001A39F700D811D6C
:105540001124911DB29F700D811D1124911D08958C
:105550005058BB27AA270E94C02A0C94982B0E945F
:105560008A2B38F00E94912B20F039F49F3F19F4D8
:1055700026F40C94872B0EF4E095E7FB0C94812B1A
:10558000E92F0E94A92B58F3BA1762077307840703
:10559000950720F079F4A6F50C94CB2B0EF4E0954A
:1055A0000B2EBA2FA02D0B01B90190010C01CA01DD
:1055B000A0011124FF27591B99F0593F50F4503E88
:1055C00068F11A16F040A22F232F342F4427585F7A
:1055D000F3CF469537952795A795F0405395C9F792
:1055E0007EF41F16BA0B620B730B840BBAF091504A
:1055F000A1F0FF0FBB1F661F771F881FC2F70EC0E9
:10560000BA0F621F731F841F48F4879577956795BB
:10561000B795F7959E3F08F0B0CF9395880F08F0A7
:105620009927EE0F9795879508950E94B12B88F0E2
:105630009F5798F0B92F9927B751B0F0E1F0660F56
:10564000771F881F991F1AF0BA95C9F714C0B13097
:1056500091F00E94CB2BB1E008950C94CB2B672FD7
:10566000782F8827B85F39F0B93FCCF386957795C6
:105670006795B395D9F73EF49095809570956195AF
:105680007F4F8F4F9F4F0895E89409C097FB3EF4DA
:1056900090958095709561957F4F8F4F9F4F99237F
:1056A000A9F0F92F96E9BB279395F69587957795FD
:1056B0006795B795F111F8CFFAF4BB0F11F460FFBD
:1056C0001BC06F5F7F4F8F4F9F4F16C0882311F015
:1056D00096E911C0772321F09EE8872F762F05C029
:1056E000662371F096E8862F70E060E02AF09A95C4
:1056F000660F771F881FDAF7880F9695879597F9B9
:10570000089597F99F6780E870E060E008959FEF43
:1057100080EC089500240A94161617061806090648
:10572000089500240A941216130614060506089517
:10573000092E0394000C11F4882352F0BB0F40F49F
:10574000BF2B11F460FF04C06F5F7F4F8F4F9F4FDF
:10575000089557FD9058440F551F59F05F3F71F061
:105760004795880F97FB991F61F09F3F79F08795C8
:105770000895121613061406551FF2CF4695F1DF51
:1057800008C0161617061806991FF1CF86957105E1
:10579000610508940895E894BB2766277727CB0115
:1057A00097F908950E94782C08F48FEF0895FA0174
:1057B000DC01AA0FBB1F9B01AC01BF5728F42227B5
:1057C00033274427507820C0B75190F4AB2F0024E2
:1057D000469537952795011CA395D2F3002071F0CB
:1057E000220F331F441FB395DAF30ED00C94A82A6E
:1057F00061307105A0E88A07B94630F49B01AC011D
:105800006627772788279078309621F02083318388
:105810004283538308950E941E2C0C94982B0E945F
:105820008A2B38F00E94912B20F0952311F00C94D4
:10583000812B0C94872B11240C94CC2B0E94A92B28
:1058400070F3959FC1F3950F50E0551F629FF001D3
:10585000729FBB27F00DB11D639FAA27F00DB11DEC
:10586000AA1F649F6627B00DA11D661F829F222775
:10587000B00DA11D621F739FB00DA11D621F839FFC
:10588000A00D611D221F749F3327A00D611D231FD2
:10589000849F600D211D822F762F6A2F11249F5720
:1058A00050409AF0F1F088234AF0EE0FFF1FBB1F23
:1058B000661F771F881F91505040A9F79E3F5105E2
:1058C00080F00C94812B0C94CC2B5F3FE4F3983E3A
:1058D000D4F3869577956795B795F795E7959F5F8C
:1058E000C1F7FE2B880F911D9695879597F908951E
:1058F000990F0008550FAA0BE0E8FEEF16161706E1
:10590000E807F907C0F012161306E407F50798F048
:10591000621B730B840B950B39F40A2661F0232B61
:10592000242B252B21F408950A2609F4A140A695DD
:105930008FEF811D811D0895991B79E004C0991F87
:10594000961708F0961B881F7A95C9F780950895D9
:10595000AA1BBB1B51E107C0AA1FBB1FA617B70795
:1059600010F0A61BB70B881F991F5A95A9F78095B1
:105970009095BC01CD01089597FB072E16F4009475
:1059800007D077FD09D00E94A82C07FC05D03EF473
:10599000909581959F4F0895709561957F4F0895DB
:1059A000EE0FFF1F881F8BBF0790F691E02D199413
:1059B0000F931F93CF93DF938230910510F482E011
:1059C00090E0E091E70AF091E80A30E020E0B0E0F2
:1059D000A0E0309799F42115310509F44AC0281B3D
:1059E000390B24303105D8F58A819B816115710509
:1059F00089F1FB0193838283FE0111C040815181B3
:105A00000281138148175907E0F04817590799F4A4
:105A1000109761F012960C93129713961C9332967E
:105A2000CF01DF91CF911F910F9108950093E70A65
:105A30001093E80AF4CF2115310551F042175307AE
:105A400038F0A901DB019A01BD01DF01F801C1CFE6
:105A5000EF01F9CF9093E80A8093E70ACDCFFE01DA
:105A6000E20FF31F819391932250310939832883E8
:105A7000D7CF2091E50A3091E60A232B41F42091FB
:105A80000602309107023093E60A2093E50A20913E
:105A90000402309105022115310541F42DB73EB7BE
:105AA0004091080250910902241B350BE091E50A50
:105AB000F091E60AE217F307A0F42E1B3F0B28171C
:105AC000390778F0AC014E5F5F4F2417350748F077
:105AD0004E0F5F1F5093E60A4093E50A819391931E
