:100000000C945D000C9485000C9485000C94A71052
:100010000C94A7100C94A7100C9485000C948500E8
:100020000C9485000C9485000C9485000C94D011E0
:100030000C9485000C9485000C9485000C9485002C
:100040000C945D100C9485000C942B100C940510EE
:100050000C9485000C9485000C9485000C9485000C
:100060000C94B1100C9485000000000024002700BF
:100070002A0000000000250028002B0004040404CE
:100080000404040402020202020203030303030342
:10009000010204081020408001020408102001021F
:1000A00004081020000000080002010000030407FB
:1000B00000000000000000008C1211241FBECFEFD2
:1000C000D8E0DEBFCDBF12E0A0E0B1E0E8E3F2E3AC
:1000D00002C005900D92A233B107D9F725E0A2E343
:1000E000B2E001C01D92A336B207E1F710E0CDE502
:1000F000D0E004C02197FE010E94E017CC35D10763
:10010000C9F70E94A0130C941A190C940000862FB2
:10011000E0911903F0911A03309711F0BA01099494
:100120000895862FE0911703F0911803309711F08E
:10013000BA0109940895862FE0911503F0911603F2
:10014000309711F0BA0109940895862FE0911303B6
:10015000F0911403309711F0BA0109940895862F95
:10016000E0911103F0911203309711F0BA01099454
:100170000895862FE0910F03F0911003309711F04E
:10018000BA01099408950895862F642FE0911B0306
:10019000F0911C03309711F0A90109940895E091A2
:1001A0001D03F0911E03309709F009940895CF9331
:1001B000DF93FC01A081B181109701F1EC01ED9179
:1001C000FC9111970190F081E02D69EFCD01099527
:1001D00088819981DC01ED91FC910190F081E02D05
:1001E00062E0099588819981DC01ED91FC91019093
:1001F000F081E02D65E0DF91CF910994DF91CF91FF
:100200000895A091CE04B091CF04ED91FC91119787
:100210000190F081E02D682FCD0109941F93CF93B9
:10022000DF93182FEB018091950490919604681745
:10023000790760F48091930490919404C80FD91FBA
:10024000188380E0DF91CF911F910895E091C2045F
:10025000F091C304309711F481E0F4CF81E08093F2
:1002600092048091AE049091AF0409958091950419
:1002700090919604C817D90778F7DCCFCF93DF9316
:10028000EC01FB0130E020E0C901880F991F8C17B9
:100290009D0778F44081DB014D93BD011197918159
:1002A000979599279795942B9C932F5F3F4F329664
:1002B000EBCFC901DF91CF910895009721F0805CC9
:1002C0009F4F0C94D7000895AF92BF92CF92DF92C8
:1002D000EF92FF920F931F93CF93DF936C017B01FB
:1002E0008B01040F151FEB015E01AE18BF08C0178C
:1002F000D10759F06991D601ED91FC910190F081FF
:10030000E02DC6010995892B79F7C501DF91CF91C1
:100310001F910F91FF90EF90DF90CF90BF90AF9023
:100320000895FC01538D448D252F30E0842F90E0FB
:10033000821B930B541710F0CF96089501970895E0
:10034000FC01918D828D981761F0A28DAE0FBF2FA9
:10035000B11D5D968C91928D9F5F9F73928F90E0FF
:1003600008958FEF9FEF0895FC01918D828D98176E
:1003700031F0828DE80FF11D858D90E008958FEFAB
:100380009FEF0895FC01918D228D892F90E0805C74
:100390009F4F821B91098F739927089587EA93E0F5
:1003A0000E94C20121E0892B09F420E0822F0895E8
:1003B00080E090E0892B29F00E94CE0181110C94FD
:1003C00000000895FC01A48DA80FB92FB11DA35AF8
:1003D000BF4F2C91848D90E001968F739927848F65
:1003E000A689B7892C93A089B1898C918370806488
:1003F0008C93938D848D981306C00288F389E02D29
:1004000080818F7D80830895EF92FF920F931F93D9
:10041000CF93DF93EC0181E0888F9B8D8C8D9813B7
:100420001AC0E889F989808185FF15C09FB7F894C3
:10043000EE89FF896083E889F9898081837080640F
:1004400080839FBF81E090E0DF91CF911F910F915A
:10045000FF90EF900895F62E0B8D10E00F5F1F4F69
:100460000F731127E02E8C8D8E110CC00FB607FC78
:10047000FACFE889F989808185FFF5CFCE010E9406
:10048000E201F1CFEB8DEC0FFD2FF11DE35AFF4F91
:10049000F0829FB7F8940B8FEA89FB898081806294
:1004A000CFCFCF93DF93EC01888D8823B9F0AA8951
:1004B000BB89E889F9898C9185FD03C0808186FD1F
:1004C0000DC00FB607FCF7CF8C9185FFF2CF80816E
:1004D00085FFEDCFCE010E94E201E9CFDF91CF9100
:1004E000089590E0FC01EC55FF4F2491FC01E0578A
:1004F000FF4F3491FC01E458FF4FE491EE23C9F023
:10050000222339F0233001F1A8F4213019F12230EF
:1005100029F1F0E0EE0FFF1FEE58FF4FA591B491C7
:100520008FB7F894EC91611126C030953E233C932F
:100530008FBF08952730A9F02830C9F0243049F73B
:10054000809180008F7D03C0809180008F778093A1
:100550008000DFCF84B58F7784BDDBCF84B58F7DFE
:10056000FBCF8091B0008F778093B000D2CF809185
:10057000B0008F7DF9CF3E2BDACFCF93DF9390E0A1
:10058000FC01E057FF4F249184589F4FFC01849158
:100590008823C9F090E0880F991FFC01E859FF4FAC
:1005A000A591B491FC01EE58FF4FC591D491611112
:1005B0000DC09FB7F8948C91209582238C938881ED
:1005C000282328839FBFDF91CF910895623051F493
:1005D0009FB7F8943C91822F809583238C93E88178
:1005E0002E2BEFCF8FB7F894EC912E2B2C938FBF3F
:1005F000EACF8E3008F08E508770806480937C0044
:1006000080917A00806480937A0080917A0086FDE0
:10061000FCCF809178009091790008953FB7F894CD
:1006200080910B0390910C03A0910D03B0910E03E8
:1006300026B5A89B05C02F3F19F00196A11DB11D3D
:100640003FBFBA2FA92F982F8827BC01CD01620F79
:10065000711D811D911D42E0660F771F881F991F34
:100660004A95D1F708958F929F92AF92BF92CF9201
:10067000DF92EF92FF926B017C010E940E034B010F
:100680005C01C114D104E104F104B9F00E940E032D
:10069000681979098A099B09683E734081059105AB
:1006A00080F321E0C21AD108E108F10888EE880E33
:1006B00083E0981EA11CB11CE4CFFF90EF90DF9067
:1006C000CF90BF90AF909F908F9008952091E302BC
:1006D000260F3327331F21323105ECF420917D039F
:1006E000FC0190E080E0243069F082E00895A09160
:1006F000E3022191AC014F535D4FA40FB52FB11D03
:100700002C930196861798F38091E302680F60930B
:10071000E30280E0089581E0089510927D0381E076
:1007200080937C031092570361E082E10E94710282
:1007300061E083E10E947102E9EBF0E080818E7F4D
:10074000808380818D7F808388E48093B80085E4F6
:100750008093BC000895CF93DF9391E09093C00203
:100760008823B9F0C091B800D091BA008091BC0044
:100770008A7B8093BC0060E082E10E94710260E0AD
:1007800083E10E9471020E948D03D093BA00C0934E
:10079000B800DF91CF9108958F929F92AF92BF9250
:1007A000CF92DF92EF92FF920F931F93CF93DF933D
:1007B000D091A603D13208F0D7C0182FC091A5035D
:1007C0000E940E036B017C0180917D0381116BC03F
:1007D00082E080937D0310937C038FEF80937B03F3
:1007E00010927A03D0937903A5E8B3E0E9E5F3E04A
:1007F00080E0D81391C01092580380915803CC0F19
:10080000C82BC093580380915703813009F088C0EA
:10081000109257030E940E036B017C0180915803D4
:100820008093BB0080917F0390918003A09181030E
:10083000B0918203892B8A2B8B2BA1F00E940E038F
:1008400000917F03109180032091810330918203F6
:100850006C197D098E099F090617170728073907A4
:1008600008F442C08091BC0083FDD8CF85EC809312
:10087000BC000E940E036B017C0180917D038230DD
:1008800009F450C080917B038F3F09F46FC08091C1
:100890007B03803209F46CC080917B03803309F4C0
:1008A00069C084E026C080917F0390918003A0916D
:1008B0008103B0918203892B8A2B8B2B09F484CF7F
:1008C0000E940E0380907F0390908003A09081038C
:1008D000B09082036C197D098E099F0986169706D0
:1008E000A806B90608F070CF80917E030E94AB0382
:1008F00085E0109284031092A60310928303DF9187
:10090000CF911F910F91FF90EF90DF90CF90BF900C
:10091000AF909F908F9008959D9191938F5F69CF35
:1009200085EEA5CF80917F0390918003A0918103F4
:10093000B0918203892B8A2B8B2B09F49ECF0E94C6
:100940000E0300917F031091800320918103309169
:1009500082036C197D098E099F090617170728075E
:10096000390708F08ACFC0CF81E0C3CF80E0C1CF84
:1009700082E0BFCF83E0BDCF089508950895E09150
:10098000BF028091BE02E81730F4F0E0E256FD4F5E
:10099000808190E008958FEF9FEF08959091BF02BE
:1009A0008091BE022FEF3FEF981748F4E92FF0E057
:1009B000E256FD4F208130E09F5F9093BF02C90156
:1009C00008958091BE029091BF02891B990B0895F2
:1009D000CF92DF92EF92FF920F931F93CF93DF930B
:1009E0007C01CB018A0120918303222389F0EB0152
:1009F0006B01C40ED51ECC15DD0569F06991D701D8
:100A0000ED91FC910190F081E02DC7010995F3CFA4
:100A1000642F0E946603C801DF91CF911F910F914F
:100A2000FF90EF90DF90CF900895CF93DF931F92C8
:100A3000CDB7DEB76983209183032223F9F020919B
:100A4000A603203258F021E030E0FC0133832283FA
:100A500090E080E00F90DF91CF9108958091840322
:100A6000E82FF0E0EB57FC4F998190838F5F8093E4
:100A700084038093A60381E090E0ECCF61E0CE0197
:100A800001960E946603F7CF90E080E00895DF9220
:100A9000EF92FF920F931F93CF93DF93EC01D62E2B
:100AA0007A01890188818C3008F067C061E08D2D62
:100AB0000E94BD028881282F30E0F901EE0FFF1F50
:100AC000E20FF31FEA5EFA4F9D2D9F736081607CF9
:100AD000692B608320E232E02E193F0937FF02C004
:100AE0002D5F3F4F3595279535952795298320E62E
:100AF00039E0201B310B37FF02C02D5F3F4F35958A
:100B00002795359527952A832CE0622F0E94D417CC
:100B1000829FB001112430E020E0AB01420F531F4F
:100B2000FA01EE0FFF1FE40FF51FEA5EFA4F908106
:100B300096FD16C02F5F3F4F2C30310571F78111A4
:100B40000FC01092800082E0809381001092850097
:100B500010928400B19A80916F00826080936F0040
:100B6000E8818E2F90E0FC01EE0FFF1FE80FF91FC8
:100B7000EA5EFA4F8081806480838881DF91CF9123
:100B80001F910F91FF90EF90DF9008955F926F9209
:100B90007F928F929F92AF92BF92CF92DF92EF920D
:100BA000FF920F931F93CF93DF935C016901DA01EA
:100BB0005C90232B19F4CC24CA94DC2C8A013A01D2
:100BC000660E771ED0E0C0E0F12CE12C87E0882E85
:100BD000912CF50180819181D8016C910C2E01C07E
:100BE000660F0A94EAF765296F77DC01ED91FC91B5
:100BF0000190F081E02D0995BFEFEB1AFB0AF80197
:100C0000608170E0C4018C1B9D0B02C075956795D7
:100C10008A95E2F7562E2196C730D10558F1CE14A9
:100C2000DF0441F1D5018D919C91652D6F77DC0139
:100C3000ED91FC910190F081E02D0995BFEFEB1A49
:100C4000FB0A551C5524551C2797E6CFEC14FD04D0
:100C500008F4BFCFDF91CF911F910F91FF90EF90DC
:100C6000DF90CF90BF90AF909F908F907F906F90CC
:100C70005F9008950F5F1F4F6016710639F7209738
:100C800049F3EC14FD0430F7F5018081918161E0B6
:100C900070E001C0660FCA95EAF761506521DC017A
:100CA000ED91FC910190F081E02DDF91CF911F91AA
:100CB0000F91FF90EF90DF90CF90BF90AF909F90FB
:100CC0008F907F906F905F9009941F93CF93DF93E5
:100CD00000D0CDB7DEB7182F7A8369838091900456
:100CE000909191040097C9F0DC01ED91FC91019085
:100CF000F081E02D1031B8F461157044A0F4612F3B
:100D0000606E099522E030E0AE014F5F5F4F62E018
:100D100070E080E994E00E94C6050F900F90DF918B
:100D2000CF911F91089560EF099580919004909163
:100D30009104DC01ED91FC910190F081E02D6FE6D2
:100D400009958091900490919104DC01ED91FC91C2
:100D50000190F081E02D612F099522E030E0AE0195
:100D60004F5F5F4F62E070E080E994E00E94C6054B
:100D70008091900490919104DC01ED91FC9101909F
:100D8000F081E02D67EF0995C8CFEF92FF920F93A6
:100D90001F93CF93DF93C82F80919004909191047B
:100DA0000097C9F17A018B01DC01ED91FC91019072
:100DB000F081E02D60EF099580919004909191046D
:100DC000DC01ED91FC910190F081E02D6C2F0995F3
:100DD000E7010E0D1F1DC017D10759F030E020E0CC
:100DE000AE0161E070E080E994E00E94C6052196C2
:100DF000F2CF8091900490919104DC01ED91FC91EF
:100E00000190F081E02D67EFDF91CF911F910F915D
:100E1000FF90EF900994DF91CF911F910F91FF9078
:100E2000EF900895CF92DF92EF92FF920F931F936E
:100E3000CF93DF93FC01E058FF4FE080EE2009F4F0
:100E40005CC0EC01C05CDF4FA881B981109709F448
:100E500054C0FC01EF57FF4FC080D180F6011181D3
:100E60000081ED91FC9111970190F081E02D60EFF0
:100E7000CD01099588819981DC01ED91FC9101906A
:100E8000F081E02D69E7099588819981DC01ED9178
:100E9000FC910190F081E02D602F09958881998166
:100EA000DC01ED91FC910190F081E02D612F09951D
:100EB000F12C01E010E00F5F1F4FE016F10659F032
:100EC00030E020E0A601400F511F61E070E0CE014C
:100ED0000E94C605F0CF88819981DC01ED91FC91DB
:100EE0000190F081E02D67EFDF91CF911F910F917D
:100EF000FF90EF90DF90CF900994DF91CF911F91F9
:100F00000F91FF90EF90DF90CF900895009711F030
:100F10000C9412070895CF938830B0F421E030E0AC
:100F2000082E02C0220F331F0A94E2F740915103AA
:100F300050915203672B51F420953095242335238B
:100F40003093520320935103CF910895242B352BD6
:100F5000309352032093510390919C029111F4CF4E
:100F6000C82F0E94F902BC018C2FCF910C9465060A
:100F70005F926F927F928F929F92AF92BF92CF9229
:100F8000DF92EF92FF920F931F93CF93DF93833003
:100F900008F061C0D1E0D80FDD0FDD0FDD0F5D2E51
:100FA000D73110F046E1542EC62F082FD8508D2E81
:100FB000912CC401880F991F9C01205B3B4F590164
:100FC000D12CC12C10E077247394D515C8F58EEF81
:100FD0008D0F8231F8F4F601E80DF91DED52FB4F4B
:100FE00090819230B8F48C2F87216624639481110C
:100FF00001C0612C7601EE0CFF1C913089F4172999
:1010000039E9E30EF11CF501EE0DFF1D862D90E090
:1010100091838083770CDF5F8FEFC81AD80AD5CF12
:10102000882371F3F701E756FF4FEA0DFB1D80811E
:101030009181019729F362E08D2F0E94BD02E0CFDC
:10104000011119C0F8948BB16C2F68276C7F612354
:1010500068276BB97894DF91CF911F910F91FF9022
:10106000EF90DF90CF90BF90AF909F908F907F9048
:101070006F905F9008950130D1F4C123F89495B139
:10108000812F8F73809589239C2F9F73892B85B91E
:1010900088B1612F62956695669563706095682347
:1010A000C295C695C695C370C62BC8B9D3CF1F705D
:1010B000F89498B1812F880F880F80958923C123D8
:1010C000CC0FCC0FC82BF1CF8F929F92AF92BF92D3
:1010D000CF92DF92EF92FF920F931F93CF93DF9304
:1010E000EB01863108F098C0082F10E0F801ED52AE
:1010F000FB4F9081933009F49CC0943009F08CC070
:101100008250823108F081C0F801EE57FD4FC08057
:10111000D12C7601EE0CFF1C4B01603282E0780787
:101120000CF03EC0F701EC0DFD1DE55CFA4F81812E
:10113000A8E88A2E912C881A910887FD9394880C30
:10114000991C880C991C092C000CAA08BB088281E8
:1011500028E532E0281B310987FD3395220F331F24
:10116000220F331F032E000C440B550B281939098D
:101170004A095B09DB01653B710514F0A4EBB0E0A3
:10118000B7FF02C0B0E0A0E00E949B1724EB30E064
:1011900040E050E00E947117820E931EA41EB51EFF
:1011A000F701EC0DFD1DE55CFA4F20812C3068F550
:1011B000318188E890E0831B910937FD9395880F72
:1011C000991F880F991F881699067CF0328188E54F
:1011D00092E0831B910937FD9395880F991F880F23
:1011E000991F881699060CF4C4010297880F991F5D
:1011F0004FB7F89430E0F901EE0FFF1FE20FF31F35
:10120000EA5EFA4F928381834FBF000F111FF801EE
:10121000E751FB4FD183C083DF91CF911F910F9195
:10122000FF90EF90DF90CF90BF90AF909F908F9006
:1012300008957B01D82F833041F08BEF800F8230EF
:1012400020F087EF800F833058F461E08D2F0E94EB
:10125000BD02E114F10461F460E08D2F0E9471027F
:10126000000F111FF801E751FB4FF182E082D4CF4C
:101270008FEFE816F10411F461E0EFCFF801EC55BF
:10128000FF4FE491E33021F148F4E130B9F0E2306E
:10129000D1F080E8E816F1047CF7DECFE73011F1F9
:1012A000E83041F1E430A9F78091800080628093BA
:1012B0008000F0928B00E0928A00D2CF84B58068E3
:1012C00084BDE7BCCDCF84B5806284BDE8BCC8CF07
:1012D00080918000806880938000F0928900E09285
:1012E0008800BECF8091B00080688093B000E0920B
:1012F000B300B6CF8091B00080628093B000E092DE
:10130000B400AECF9EEF980F923180F4E82FF0E05A
:10131000DF01AD52BB4F9C91913041F4EE0FFF1FA6
:10132000E751FB4F608371830C9471020895FF9223
:101330000F931F93CF93DF9300D0CDB7DEB7082F65
:1013400010E0F801E15EFC4F9081F62EF92208567C
:101350001D4F411104C0F80190819F1511F12F2DEF
:1013600030E03A832983A0919004B09191041097C2
:10137000B1F0682F6F706069ED91FC911197019049
:10138000F081E02DCD01099522E030E0AE014F5F04
:101390005F4F62E070E080E994E00E94C605F801CA
:1013A000F0820F900F90DF91CF911F910F91FF90DE
:1013B0000895833040F5282F30E0F901EE5DFC4FB1
:1013C0006083672B01F1215E3C4FF901608181113F
:1013D00006C099B19C7F692341E00C949709813044
:1013E00049F493B126B19F73F0E42F9F900111242B
:1013F000922BF1CF26B130E035952795359527957D
:101400002F706223E9CF0895A82FB0E0AE57BD4FEB
:101410009C91292F30E0F901EE0FFF1FE20FF31F1F
:10142000E55CFA4FE0812E2F30E0F901EE0FFF1F4F
:10143000E20FF31FEA5EFA4F80818F7B80838091F9
:101440008002981308C0992319F09150909380025C
:101450008FEF8C9308958823D9F3E0918102EF5F99
:10146000E0938102F0E0EF5CFD4F9083F1CFFC014F
:1014700001900020E9F73197BF01681B790BAC019F
:1014800081E70C94C506CF93DF93DB019091800236
:101490009C3078F530918102682F70E0FB01EE57A7
:1014A000FD4F3323E1F0C32FD0E0CF5CDD4F8881C7
:1014B0008083315030938102808123E0829FC0017C
:1014C0001124855C9A4F1A161B0674F4141615061F
:1014D0005CF49A01AD01DF91CF910C9447059083A4
:1014E0009F5F90938002E8CF20E639E040E252E02F
:1014F000F2CF8DE291E0DF91CF910C94370A85ED28
:101500008093BC0080917F0390918003A091810320
:10151000B09182030796A11DB11D23E0B695A79552
:10152000979587952A95D1F72091BC0024FD03C09B
:1015300010927D03089540917F0350918003609144
:10154000810370918203452B462B472B69F300974B
:10155000A105B10541F025E32A95F1F700000197B7
:10156000A109B109E1CF80917E030C94AB039F9256
:10157000AF92BF92CF92DF92EF92FF920F931F93A1
:10158000CF93DF93C82ED12CE601C05BDB4FFE0169
:10159000ED57FF4F90819F3709F49FC0963061F45B
:1015A00090919B02992341F06630710529F01092C9
:1015B0009B029FEF909300017B01182F0EEF080F05
:1015C000023108F564307105F1F0F601EE57FD4F78
:1015D00080818C30C0F490E0FC01EE0FFF1FE80F1B
:1015E000F91FE55CFA4FE0818E2F90E0FC01EE0FD1
:1015F000FF1FE80FF91FEA5EFA4F808186FF03C0E4
:10160000812F0E94040A52EF952E910E87E08915D2
:1016100058F061E070E032E0E316F10411F070E0A0
:1016200060E0892D0E948B070231C8F4E12FE69516
:10163000E695E695F0E0E15EFC4F2081312F3770B2
:1016400081E090E001C0880F3A95EAF7E114F104D7
:1016500021F03BE0E316F10401F5822B8083560173
:10166000AA0CBB1CF501E751FB4F118210828CE0E4
:10167000E816F10408F0CBC0F701EF5BF44F0C94CF
:10168000E017610B8E0B500BA50BC40B070CFB0B6B
:10169000070C070C070C6D0B790B80958223DECFAE
:1016A00037E03915D0F0023120F460E0812F0E943C
:1016B000BD02CD57DF4F88818F3779F082E0888374
:1016C0000CC0023150F460E0812F0E94BD02CD5762
:1016D000DF4F88818F3709F01882DF91CF911F91FA
:1016E0000F91FF90EF90DF90CF90BF90AF909F90C1
:1016F0000895023190F762E0812F0E94BD02CD571C
:10170000DF4F88818F3711F08BE08883F501E75137
:10171000FB4F81E090E091838083DFCF0231E8F6D8
:10172000FE01ED57FF4F8081833021F460E0812F6F
:101730000E94710261E0812F0E94BD02CD57DF4FF0
:1017400088818F3751F281E0BACF133049F08BEFA7
:10175000810F823028F087EF810F833008F0BDCFF2
:1017600061E0812F0E94BD0261E0812F0E94BD02D5
:1017700060E0812F0E947102CD57DF4F88818F3743
:1017800009F4ABCF83E09BCF023108F0A6CFCD5751
:10179000DF4F88818F3711F084E08883F601EE57A0
:1017A000FD4F80818F3FA9F090E0FC01EE0FFF1FFD
:1017B000E80FF91FE55CFA4FE0818E2F90E0FC0105
:1017C000EE0FFF1FE80FF91FEA5EFA4F808186FDDA
:1017D00084CF4FEF5FEF6FEF7FEF812FDF91CF91DE
:1017E0001F910F91FF90EF90DF90CF90BF90AF903F
:1017F0009F900C94430A1251123008F06ECFCD57CF
:10180000DF4F88818F3709F468CF86E058CF81E4B5
:1018100091E0DF91CF911F910F91FF90EF90DF90BA
:10182000CF90BF90AF909F900C94370A0F931F9367
:10183000CF93DF9381E080939C0280919B02882369
:1018400029F010929B028FEF8093000110922203E7
:1018500010921F03109298021092230310922003FB
:1018600010929902109224031092210310929A026E
:1018700002E812E0C0E0DFEF82EF8C0F62E070E080
:10188000883030F08EEF8C0F823128F461E070E008
:101890008C2F0E94B70AF801D1938F01CF5FC63118
:1018A00059F7109252031092510310928102109234
:1018B000800210929C02DF91CF911F910F910895A9
:1018C0004F925F926F927F928F929F92AF92BF9250
:1018D000DF92EF92FF920F931F93CF93DF93D82E57
:1018E0008B01D42FC22F6F3F760709F490C081E09F
:1018F00080938303D092A503109284031092A603D1
:1019000084E494E00E9415058C2F0E94CC03809102
:101910007E0290917F028230910538F0880F991FE6
:10192000880F991F05970197F1F70E940E034B014D
:101930005C0180917D0381116CC0CD2FD13208F004
:10194000C0E281E080937D0380937C039FEF9093BE
:101950007B0310927A039C0F909379038093580332
:10196000909158038D2D880F892B80935803809177
:101970005703813009F09EC0109257030E940E0356
:101980004B015C01809158038093BB0080917F03E1
:1019900090918003A0918103B0918203892B8A2BBF
:1019A0008B2BA1F00E940E0340907F035090800388
:1019B0006090810370908203681979098A099B09F4
:1019C000461657066806790608F444C08091BC00A4
:1019D00083FDD8CF85EC8093BC000E940E034B01A1
:1019E0005C0180917D03813009F466C080917A03A7
:1019F0008C1710F4C0917A03A9E5B3E0EEE9F2E0A8
:101A000080E08C1761F19D9191938F5FFACF00E098
:101A10008CCF80917F0390918003A0918103B0913E
:101A20008203892B8A2B8B2B09F483CF0E940E0310
:101A300040907F03509080036090810370908203F8
:101A4000681979098A099B094616570668067906B6
:101A500008F06FCF80917E030E94AB03C0E010922C
:101A6000BF02C093BE02ED2EF12C8C2F90E0E81641
:101A7000F9060CF043C082E591E00E94370AD0924B
:101A80003E0200933F020EE312E0C8018E539240E3
:101A90008E159F05D4F50F5F1F4F9091BE02809168
:101AA000BF02981791F184E494E00E94CE04F801FB
:101AB0008183EBCF85EE8FCF80917F039091800360
:101AC000A0918103B0918203892B8A2B8B2B09F47F
:101AD00088CF0E940E0340907F0350908003609057
:101AE000810370908203681979098A099B09461657
:101AF00057066806790608F074CFACCF8E159F059F
:101B00000CF0BDCF8FE691E0B8CFDE5F6D2F70E0B7
:101B10004EE352E087E7DF91CF911F910F91FF9045
:101B2000EF90DF90BF90AF909F908F907F906F90DD
:101B30005F904F900C94C506EF92FF920F931F9306
:101B4000CF93DF938956823108F033C0EA01162F14
:101B5000E82FF0E0E255F24F0C94E017F40FD90DA6
:101B60005B0FD90DB30FD90D390FDD0ED90DD90D7E
:101B7000D90DD90DD90DC00DD90DA10ED90D230F39
:101B8000998195FF0AC08BE891E0DF91CF911F9179
:101B90000F91FF90EF900C94370A888131E096FB0B
:101BA000222720F9232798719830D1F148F49923FE
:101BB000A9F0DF91CF911F910F91FF90EF900895C1
:101BC000903109F44CC09831A1F720910001121610
:101BD0000CF472C08FEF80930001EBCF309383033E
:101BE0008093A503109284031092A60302E00117CC
:101BF00078F4FE01E00FF11D618167956627679516
:101C00008081680F84E494E00E9415050E5FEFCF99
:101C100081E00E94CC0383E191E00197F1F7C9CF05
:101C20009A814B816630A1F430E8439FB0011124C2
:101C3000690F711D4D814795442747959C81490F38
:101C4000DF91CF911F910F91FF90EF900C94600C5A
:101C5000479544274795490F6FEF7FEFF1CFE0910C
:101C60000001E7301CF08BEA91E08FCF3A819B8135
:101C70006630D9F460E8969FA0011124430F511DEE
:101C80009D819795992797953C81930FEF5FE093FE
:101C9000000135E0E302F0011124E75DFC4F808391
:101CA000528341839383248384CF97959927979573
:101CB000930F4FEF5FEFEACF90E0622F022E000C00
:101CC000770B35E0492F50E06417750764F0349FB7
:101CD000F001359FF00D1124E75DFC4F408148175E
:101CE00019F09F5FEFCF90E085E0492F50E0641737
:101CF00075071CF19830F8F4FA0131968E9FD001E7
:101D00008F9FB00D1124A75DBC4F3C91849FF001C3
:101D1000859FF00D1124E75DFC4F308311964D91A6
:101D20005C9112975283418313963C9113973383AE
:101D300014963C9134839F5FD8CF215020930001AB
:101D400038CF623078F0898160E8869F9001112455
:101D50008881820F932F911D009721F090937F022D
:101D600080937E0280919B02811123CFC0E08EEE92
:101D70008C0F823028F466E070E08C2F0E94B70A46
:101D8000CF5FC631A1F781E080939B021092BF0222
:101D90001092BE02109284031092A6030E948D033B
:101DA0008CEB94E09093E2028093E1028DEB94E05F
:101DB0009093E6028093E502FCCE653008F4F9CEFC
:101DC00018818EEF810F823108F0F3CE0981EA800D
:101DD000FB80CC81E12FF0E0EE57FD4F80818C300D
:101DE000C0F490E0FC01EE0FFF1FE80FF91FE55C67
:101DF000FA4FE0818E2F90E0FC01EE0FFF1FE80FFD
:101E0000F91FEA5EFA4F808186FF03C0812F0E948E
:101E1000040A80E8C89FA00111244F0D511D90E8CD
:101E2000E99EB0011124600F711D812F0E94430AA9
:101E300064E070E0812FDF91CF911F910F91FF90AF
:101E4000EF900C94B70A623008F4B3CE8981E0E8D1
:101E50008E9F900111248881820F932F911D0097EE
:101E600029F09093020180930101A3CE81E090E0DC
:101E7000F8CF623008F49DCE698170E0123091F0A5
:101E80008A81F0E88F9FC0011124682B792B1330D1
:101E900049F08B8190E090E4899F902D8827112450
:101EA000682B792B8881DF91CF911F910F91FF9043
:101EB000EF900C94640880EF0E9401018CE60E9470
:101EC0000101CEEF84EF8C0F883020F582E00E9474
:101ED00001018AE00E9401018DEF8C0F8230E0F059
:101EE00089EF8C0F8330F0F417C0C23158F780E0CF
:101EF0000E94010181E00E9401018BE00E9401012A
:101F000081E00E94010181E00E94010181E00E94C4
:101F10000101D8CFC13001F783E00E94010188E0C0
:101F20000E940101C23130F484E00E9401018EE080
:101F30000E94010180EF8C0F823030F486E00E9415
:101F4000010181E00E9401018FE70E940101CF5F42
:101F5000C43159F687EFDF91CF911F910F91FF9018
:101F6000EF900C940101662309F423CEC88180EF21
:101F70000E9401018EE60E9401018C2F0E94010146
:101F8000C63140F7D0E0FE01ED52FB4F80810E9448
:101F90000101CC0FDD1F8E0107511B4FF80180811D
:101FA0008F770E940101F801808191819C01207846
:101FB000232B39F0880F892F881F990B8F770E9468
:101FC0000101C751DB4F888199819C012227307C18
:101FD000232B09F4BFCF990F880B990F982F881FD7
:101FE0008F770E940101B6CF80EF0E9401018AE63F
:101FF0000E940101C2EF8FE7C83008F48C2F0E94C5
:102000000101CF5FC830B9F7A5CF1F920F920FB66D
:102010000F9211242F933F934F935F936F937F936E
:102020008F939F93AF93BF93EF93FF9387EA93E0D0
:102030000E94E201FF91EF91BF91AF919F918F912B
:102040007F916F915F914F913F912F910F900FBEB4
:102050000F901F9018951F920F920FB60F92112498
:102060002F938F939F93EF93FF93E091B703F0919A
:10207000B8038081E091BD03F091BE0382FD1BC0D7
:1020800090818091C0038F5F8F732091C10382176D
:1020900041F0E091C003F0E0E955FC4F958F80934B
:1020A000C003FF91EF919F918F912F910F900FBEE1
:1020B0000F901F9018958081F4CF1F920F920FB64A
:1020C0000F9211242F933F938F939F93AF93BF93BE
:1020D0008091250390912603A0912703B0912803B6
:1020E00030910A0323E0230F2D3758F50196A11DE7
:1020F000B11D20930A038093250390932603A09398
:102100002703B093280380910B0390910C03A091B7
:102110000D03B0910E030196A11DB11D80930B0319
:1021200090930C03A0930D03B0930E03BF91AF9156
:102130009F918F913F912F910F900FBE0F901F9005
:10214000189526E8230F0296A11DB11DD2CF1F922C
:102150000F920FB60F9211240F900FBE0F901F9089
:1021600018951F920F920FB60F9211242F933F9341
:102170004F935F936F937F938F939F93AF93BF938F
:10218000EF93FF938091B900887F803609F44AC0AD
:10219000F0F5883209F4A7C018F5803109F49BC026
:1021A000B8F4882309F4F9C0883009F494C0FF9189
:1021B000EF91BF91AF919F918F917F916F915F91BF
:1021C0004F913F912F910F900FBE0F901F90189538
:1021D000883109F488C0803251F780937B0314C0A2
:1021E000803409F49DC040F48033B9F38833F9F6A4
:1021F00080937B0385ECB0C0803509F485C08835B9
:1022000009F496C0883499F60E947F0AD0CF8839A5
:1022100009F48CC038F5883729F050F4883611F06D
:10222000803729F683E080937D031092070357C01F
:10223000883809F47BC0803919F0803809F0B7CFAD
:1022400080910703803208F071C0E091070381E0BC
:102250008E0F809307038091BB00F0E0E951FD4FA2
:1022600080833DC0803B39F0E0F4803A09F479C0C6
:10227000883A09F09CCF84E080937D031092E402B9
:102280001092E302E091E102F091E202099580915F
:10229000E30281110FC081E08093E3021092C1023A
:1022A00009C0803C09F4A6CF883C09F4A3CF883B41
:1022B00009F07DCFE091E40281E08E0F8093E4028B
:1022C000F0E0EF53FD4F80818093BB009091E402DA
:1022D0008091E30229C0809158038093BB0085EC74
:1022E0008093BC0064CF90917A0380917903981712
:1022F00058F5E0917A0381E08E0F80937A03F0E045
:10230000E75AFC4F8081E9CFE0917A0381E08E0F9C
:1023100080937A038091BB00F0E0E75AFC4F808302
:1023200090917A03809179039817C8F285E8D8CF05
:10233000E0917A0381E08E0F80937A038091BB0055
:10234000F0E0E75AFC4F808380917C0381115CCFE1
:1023500081E08093570384EA8093BC0010927D0350
:1023600026CF85EC8093BC0010927D0380910703FB
:10237000803230F4E0910703F0E0E951FD4F108224
:102380006091070370E0E091E502F091E60287EECC
:1023900092E00995109207030ACF10927B0334CF85
:1023A0001F920F920FB60F9211242F933F934F93CA
:1023B0005F936F937F938F939F93AF93BF93CF93CD
:1023C000DF93EF93FF9380919D02C0913A05D0E097
:1023D00087FF24C0109285001092840080919D0296
:1023E0008F5F80939D0280919D02082E000C990BB7
:1023F0008C179D0724F480919D028C30C4F180914C
:10240000840090918500049680349C4908F47AC039
:102410008091840090918500049676C080919D0201
:10242000082E000C990B8C179D07C4F6E0919D02B5
:102430008E2FEE0F990BFC01EE0FFF1FE80FF91F17
:10244000EA5EFA4F808186FFC9CFE0919D028E2F10
:10245000EE0F990BFC01EE0FFF1FE80FF91FEA5E6C
:10246000FA4F808160E08F730E947102B7CF209194
:10247000840030918500E0919D028E2FEE0F990B24
:10248000FC01EE0FFF1FE80FF91FEA5EFA4F818192
:102490009281820F931F9093890080938800E0912E
:1024A0009D028E2FEE0F990BFC01EE0FFF1FE80F20
:1024B000F91FEA5EFA4F808186FF11C0E0919D020C
:1024C0008E2FEE0F990BFC01EE0FFF1FE80FF91F87
:1024D000EA5EFA4F808161E08F730E947102FF9182
:1024E000EF91DF91CF91BF91AF919F918F917F91AC
:1024F0006F915F914F913F912F910F900FBE0F9071
:102500001F90189580E49CE990938900809388003F
:102510008FEF80939D02E3CF1092AA031092A9033C
:1025200088EE93E0A0E0B0E08093AB039093AC031F
:10253000A093AD03B093AE032DE031E03093A80338
:102540002093A70325EC30E03093B4032093B3032A
:1025500024EC30E03093B6032093B50320EC30E058
:102560003093B8032093B70321EC30E03093BA03E3
:102570002093B90322EC30E03093BC032093BB03DB
:1025800026EC30E03093BE032093BD031092C003CD
:102590001092C1031092C2031092C3031092470419
:1025A000109246048093480490934904A0934A04EF
:1025B000B0934B048FE191E09093450480934404E1
:1025C00080E594E01092910410929004909394040A
:1025D0008093930420E430E0309396042093950494
:1025E000109297041092980410929A0410929904F1
:1025F00010929B0410929D0410929C0410929F04D0
:1026000010929E041092A1041092A0041092A304B0
:102610001092A2041092A5041092A4041092A70490
:102620001092A6041092A9041092A8041092AF046C
:102630001092AE041092B1041092B0041092B30440
:102640001092B2041092B5041092B4041092C30414
:102650001092C204109292041092D0041092D204EC
:102660001092D1041092150527E830E03093B7049A
:102670002093B60421E930E03093B9042093B804E4
:102680002BE930E03093BB042093BA0425EA30E014
:102690003093BD042093BC042FEA30E03093BF0494
:1026A0002093BE0429EB30E03093C1042093C00492
:1026B00023EC30E03093C5042093C40424EC30E0D4
:1026C0003093C7042093C60426E837E03093C9044A
:1026D0002093C8049093AB048093AA042DE531E0C5
:1026E0003093CB042093CA049093AD048093AC0440
:1026F0008FEC90E09093CD048093CC04EBE3F5E075
:102700002FEF48EB5BE080913A058C30B8F491E014
:10271000980F90933A05808390E0DC01AA0FBB1FCD
:10272000A80FB91FAA5EBA4F12965C934E931197E9
:10273000339685E0EF35F80731F708952083F8CF19
:10274000789484B5826084BD84B5816084BD85B58C
:10275000826085BD85B5816085BD80916E00816098
:1027600080936E001092810080918100826080933E
:102770008100809181008160809381008091800040
:102780008160809380008091B10084608093B1006B
:102790008091B00081608093B00080917A00846065
:1027A00080937A0080917A00826080937A00809191
:1027B0007A00816080937A0080917A0080688093AB
:1027C0007A001092C10085E28093D0048091D104F8
:1027D0009091D2040E948218C091D004D0E0CE0122
:1027E00001960E94E6179093D2048093D104FC01D5
:1027F000EC0FFD1F108212E0DC011C9325E0119606
:102800002C93AE01425051096DE072E002960E9495
:102810000B1984E698E090931A038093190388EBD0
:1028200097E090931803809317038BE897E09093B9
:1028300016038093150389ED99E090931403809318
:10284000130387EB9AE0909312038093110382E8BD
:1028500099E09093100380930F038CE99DE090938F
:102860001C0380931B0386E19CE090931E038093DE
:102870001D03E091B703F091B8031083E091B70313
:10288000F091B8031082E091B303F091B403108289
:10289000E091B503F091B60380E180831092BF030D
:1028A000E091BB03F091BC0386E08083E091B90323
:1028B000F091BA03808180618083E091B903F09147
:1028C000BA03808188608083E091B903F091BA03F4
:1028D000808180688083E091B903F091BA038081A0
:1028E0008F7D80838091150581114FC061E08DE05F
:1028F0000E94BD0262ED70E080E090E00E94330330
:1029000061E08DE00E94710268E270E080E090E09A
:102910000E94330360E08DE00E94710262ED70E07E
:1029200080E090E00E94330361E08DE00E9471023C
:1029300068E270E080E090E00E94330360E08DE0A8
:102940000E9471026AEF70E080E090E00E94330321
:10295000C5E062ED70E080E090E00E94330361E04A
:102960008DE00E94710268E270E080E090E00E94D9
:10297000330360E08DE00E947102C15051F76DE7B2
:1029800070E080E090E00E94330387EA93E0909348
:10299000CF048093CE04909391048093900480E9B7
:1029A00094E00E94D70080E594E00E9412070E9404
:1029B000160C25E0D22EC0E0D0E0CC24C39402E077
:1029C00010E0EE24E394F12C80912203882349F057
:1029D00069B180911F0368236C7F40E080E00E9412
:1029E000970980912303882379F063B186B16F73CF
:1029F000B0E48B9FC0011124682B809120036823D1
:102A000040E081E00E94970980912403882359F0D7
:102A100066B1809121038F7066956695682340E0CA
:102A200082E00E9497098091CE049091CF04DC014E
:102A3000ED91FC910084F185E02D0995892B09F435
:102A4000CEC18091CE049091CF04DC01ED91FC9138
:102A50000284F385E02D09959C018F3F980719F3B7
:102A6000982F80919B04882309F492C0973F09F026
:102A70007EC010929B04A0919304B09194046C9139
:102A80006137C1F1693709F05CC0E091C804F09189
:102A9000C904309741F280919C0490919D04833049
:102AA000910560F430E020E050E040E070E060E04C
:102AB0008091AA049091AB040995B5CFBD016D5FDB
:102AC0007F4F03970E943E01BC016D5F7F4F80E006
:102AD0000E940E01E0919304F09194049F012D5FF8
:102AE0003F4F428150E0618170E0E091C804F09175
:102AF000C904DECF8091C4049091C504892B09F4E8
:102B000092CFBD016F5F7F4F80919C0490919D0497
:102B100001970E943E01BC016F5F7F4F80E00E94E1
:102B20000E0160919304709194046F5F7F4FE09168
:102B3000C404F091C5048091B0049091B10409954A
:102B400072CFE091C604F091C704309709F46BCFBF
:102B50009D012F5F3F4F40919C0450919D04415037
:102B600051098091B2049091B30409955CCF6091B2
:102B70009C0470919D04822F0E940E0180919C0400
:102B800090919D04019690939D0480939C044BCF5B
:102B90006091990470919A046115710509F4B1C0AE
:102BA00027FDAFC06150710970939A046093990436
:102BB000822F0E940E018091990490919A04892B92
:102BC00009F031CF80919704882309F42CCF803D00
:102BD00009F483C040F4803949F1803C09F469C0AC
:102BE0001092970420CF843FE1F1853F09F44DC056
:102BF000803EB1F7E091B604F091B704309781F3CD
:102C0000A0919304B09194044C9120E8429FC0019C
:102C1000112411964C91480F592F511D6091980421
:102C200080919E0490919F040995DACFE091B804B9
:102C3000F091B9043097A1F2A0919304B09194045B
:102C40004C9120E8429FC001112411964C91480FED
:102C5000592F511D609198048091A0049091A10476
:102C6000E3CFE091BE04F091BF04309709F4B8CFF0
:102C7000A0919304B09194044C9150E011966C9102
:102C80008091A6049091A704CFCFE091C004F09169
:102C9000C104309709F4A4CFA0919304B091940497
:102CA0004C9150E011966C918091A8049091A904E8
:102CB000BBCFE091BA04F091BB04309709F490CFF8
:102CC000A0919304B09194044C9150E060919804C9
:102CD0008091A2049091A304A7CFE091BC04F0914D
:102CE000BD04309709F47CCFA0919304B091940473
:102CF0004C9150E0609198048091A4049091A504B7
:102D000093CF903F30F4822F8F7080939804922F4E
:102D1000907F903FF1F190F4903CB1F150F49039F4
:102D200009F081CE10939A0400939904909397042C
:102D30007ACE903D49F1903EA9F375CE993F09F4C2
:102D400042C028F48CE0890F823060F36CCE9F3F44
:102D500009F069CE10929A04109299041092970487
:102D60001092980490E080E02091950430919604B0
:102D700082179307A8F4E0919304F0919404E80F6C
:102D8000F91F10820196F0CFF0929A04E092990414
:102D9000CDCFC0929B0410929D0410929C0443CE10
:102DA00010929B0410929D0410929C04E091CC041C
:102DB000F091CD048091B4049091B504309709F45A
:102DC00032CE099530CEE091CA04F091CB04309711
:102DD00009F429CE8091AC049091AD04F2CF8FB765
:102DE000F8948090250390902603A0902703B0903C
:102DF00028038FBF8091530390915403A0915503F2
:102E0000B0915603409101015091020170E060E0E1
:102E1000881A990AAA0ABB0A481559056A057B054A
:102E200008F054C0840F951FA61FB71F809353034B
:102E300090935403A0935503B093560380E5882ED6
:102E400084E0982E92EFB92E87E08B15C8F0F4013C
:102E5000ED57FF4F8081823099F48091510390911A
:102E600052030B2C02C0959587950A94E2F780FFD8
:102E700007C08B2D0E94F902BC018B2D0E946506B4
:102E8000B394AFEF8A1A9A0AB8E0BB12DDCF8091F3
:102E9000000187FD1BC0B12C2B2D30E0809100017B
:102EA000082E000C990B8217930784F0D29EF00134
:102EB000D39EF00D1124E75DFC4F61817281248166
:102EC000438180810E94600CB394E6CF209709F47F
:102ED0007BCD0E94CE01882309F476CD0E940000AC
:102EE00073CD052E97FB1EF400940E94881757FDA2
:102EF00007D00E94A31707FC03D04EF40C94881748
:102F000050954095309521953F4F4F4F5F4F089515
:102F100090958095709561957F4F8F4F9F4F089545
:102F20000E94C517A59F900DB49F900DA49F800D82
:102F3000911D11240895B7FF0C9490170E949017CB
:102F4000821B930B0895A1E21A2EAA1BBB1BFD0145
:102F50000DC0AA1FBB1FEE1FFF1FA217B307E40778
:102F6000F50720F0A21BB30BE40BF50B661F771FD0
:102F7000881F991F1A9469F76095709580959095B0
:102F80009B01AC01BD01CF010895A29FB001B39F89
:102F9000C001A39F700D811D1124911DB29F700D62
:102FA000811D1124911D0895991B79E004C0991F7A
:102FB000961708F0961B881F7A95C9F78095089593
:102FC000EE0FFF1F0590F491E02D09940F931F93CE
:102FD000CF93DF938230910510F482E090E0E0918E
:102FE0006105F091620530E020E0B0E0A0E03097AC
:102FF00099F42115310509F44AC0281B390B2430F6
:103000003105D8F58A819B816115710589F1FB0134
:1030100093838283FE0111C040815181028113811B
:1030200048175907E0F04817590799F4109761F0CD
:1030300012960C93129713961C933296CF01DF9140
:10304000CF911F910F910895009361051093620530
:10305000F4CF2115310551F04217530738F0A9017B
:10306000DB019A01BD01DF01F801C1CFEF01F9CF0A
:103070009093620580936105CDCFFE01E20FF31FAF
:10308000819391932250310939832883D7CF20919E
:103090005F0530916005232B41F4209105013091AB
:1030A00006013093600520935F0520910301309164
:1030B00004012115310541F42DB73EB740910701B8
:1030C00050910801241B350BE0915F05F0916005DC
:1030D000E217F307A0F42E1B3F0B2817390778F0EF
:1030E000AC014E5F5F4F2417350748F04E0F5F1F4E
:1030F0005093600540935F05819391939FCFF0E0DB
:10310000E0E09CCFCF93DF930097E9F0FC0132978A
:1031100013821282A0916105B0916205ED0130E049
:1031200020E01097A1F420813181820F931F20911C
:103130005F05309160052817390709F061C0F093E9
:103140006005E0935F05DF91CF910895EA01CE1706
:10315000DF07E8F54A815B819E0141155105B1F712
:10316000E901FB83EA8349915991C40FD51FEC17FC
:10317000FD0761F4808191810296840F951FE9011A
:1031800099838883828193819B838A83F0E0E0E046
:1031900012968D919C9113970097B9F52D913C91C2
:1031A0001197CD010296820F931F20915F053091F8
:1031B00060052817390739F6309751F510926205E6
:1031C00010926105B0936005A0935F05BCCFD383D7
:1031D000C28340815181840F951FC817D90761F4BC
:1031E0004E5F5F4F88819981480F591F51834083FB
:1031F0008A819B81938382832115310509F0B0CFA9
:10320000F0936205E09361059ECFFD01DC01C0CF24
:1032100013821282D7CFFB01DC014150504048F0AD
:1032200001900D920020C9F701C01D9241505040FD
:08323000E0F70895F894FFCFC8
:10323800FF13000000630580000000000004026422
:103248000191015102C201A001B401000000001562
:1032580005E8044405BE04E104CE04BF044D6178CA
:1032680020736572766F7320617474616368656436
:1032780000556E6B6E6F776E2070696E206D6F648F
:1032880065004932433A20546F6F206D616E792092
:10329800627974657320726563656976656400494F
:1032A80032433A20546F6F206665772062797465DF
:1032B800732072656365697665640031302D6269D3
:1032C800742061646472657373696E67206E6F74CD
:1032D80020737570706F7274656400746F6F206D01
:1032E800616E79207175657269657300463A5C6F25
:1032F80070656E626C6F636B5F646576656C6F702A
:103308005C6F70656E626C6F636B2D6669726D774A
:10331800617265735C61726475696E6F5C61726419
:1033280075696E6F556E6F556C7472612E7374612A
:103338006E646172644669726D6174615C61726425
:1033480075696E6F556E6F556C7472612E7374610A
:103358006E646172644669726D6174612E696E6F24
:02336800000063
:00000001FF
